8=FIX.4.4|9=68|35=A|34=1|49=SIMPLE|52=20240613-16:21:12.562|56=CLIENT1|98=0|108=30|10=186|8=FIX.4.4|9=136|35=8|34=2|49=SIMPLE|52=20240613-16:21:16.749|56=CLIENT1|1=77|6=10|11=999|14=75|17=1|31=10|32=75|37=1|38=75|39=2|54=1|55=IBM|150=2|151=0|10=242|