8=FIX.4.4|9=68|35=A|34=1|49=SIMPLE|52=20240808-09:52:05.324|56=CLIENT1|98=0|108=30|10=196|8=FIX.4.4|9=56|35=0|34=2|49=SIMPLE|52=20240808-09:52:35.962|56=CLIENT1|10=163|8=FIX.4.4|9=154|35=8|34=3|49=SIMPLE|52=20240808-09:53:01.642|56=CLIENT1|1=221|6=10|11=145|14=78|17=1|31=10|32=78|37=1|38=78|39=2|54=1|55=TRY|58=Execute All !|150=2|151=0|10=048|8=FIX.4.4|9=65|35=2|34=4|49=SIMPLE|52=20240808-09:53:31.777|56=CLIENT1|7=3|16=0|10=037|8=FIX.4.4|9=56|35=0|34=5|49=SIMPLE|52=20240808-09:54:01.912|56=CLIENT1|10=156|8=FIX.4.4|9=56|35=0|34=6|49=SIMPLE|52=20240808-09:54:32.096|56=CLIENT1|10=164|8=FIX.4.4|9=154|35=8|34=7|49=SIMPLE|52=20240808-09:54:42.288|56=CLIENT1|1=321|6=10|11=15|14=70|17=2|31=10|32=70|37=2|38=70|39=2|54=1|55=MSFT|58=Execute All !|150=2|151=0|10=050|8=FIX.4.4|9=65|35=2|34=8|49=SIMPLE|52=20240808-09:54:59.903|56=CLIENT1|7=7|16=0|10=047|8=FIX.4.4|9=136|35=9|34=9|49=SIMPLE|52=20240808-09:55:21.014|56=CLIENT1|11=5|37=unknown orderID|39=8|41=3|58=This is an OrderCancelRequest|102=99|434=1|10=168|8=FIX.4.4|9=137|35=9|34=10|49=SIMPLE|52=20240808-09:55:48.316|56=CLIENT1|11=4|37=unknown orderID|39=8|41=5|58=This is an OrderCancelRequest|102=99|434=1|10=224|8=FIX.4.4|9=144|35=9|34=11|49=SIMPLE|52=20240808-09:56:11.706|56=CLIENT1|11=9|37=unknown orderID|39=8|41=8|58=This is an OrderCancelReplaceRequest|102=99|434=1|10=157|8=FIX.4.4|9=144|35=9|34=12|49=SIMPLE|52=20240808-09:56:35.188|56=CLIENT1|11=7|37=unknown orderID|39=8|41=9|58=This is an OrderCancelReplaceRequest|102=99|434=1|10=167|