8=FIX.4.4|9=68|35=A|34=1|49=SIMPLE|52=20240806-10:37:15.770|56=CLIENT1|98=0|108=30|10=195|8=FIX.4.4|9=147|35=9|34=2|49=SIMPLE|52=20240806-10:37:42.900|56=CLIENT1|11=158|37=unknown orderID|39=8|41=156|58=This is an OrderCancelReplaceRequest|102=99|434=1|10=046|