8=FIX.4.4|9=68|35=A|34=1|49=SIMPLE|52=20240809-14:44:31.179|56=CLIENT1|98=0|108=30|10=201|8=FIX.4.4|9=151|35=8|34=2|49=SIMPLE|52=20240809-14:44:44.606|56=CLIENT1|1=12|6=10|11=1|14=66|17=1|31=10|32=66|37=1|38=66|39=2|54=1|55=IBM|58=Execute All !|150=2|151=0|10=101|8=FIX.4.4|9=151|35=8|34=3|49=SIMPLE|52=20240809-14:45:11.470|56=CLIENT1|1=3|6=55|11=2|14=60|17=2|31=55|32=60|37=2|38=60|39=2|54=1|55=MSFT|58=Execute All !|150=2|151=0|10=149|8=FIX.4.4|9=138|35=9|34=4|49=SIMPLE|52=20240809-14:45:41.343|56=CLIENT1|11=11|37=unknown orderID|39=8|41=12|58=This is an OrderCancelRequest|102=99|434=1|10=005|8=FIX.4.4|9=138|35=9|34=5|49=SIMPLE|52=20240809-14:46:09.366|56=CLIENT1|11=11|37=unknown orderID|39=8|41=12|58=This is an OrderCancelRequest|102=99|434=1|10=016|8=FIX.4.4|9=56|35=0|34=6|49=SIMPLE|52=20240809-14:46:39.635|56=CLIENT1|10=168|8=FIX.4.4|9=143|35=9|34=7|49=SIMPLE|52=20240809-14:46:42.943|56=CLIENT1|11=2|37=unknown orderID|39=8|41=1|58=This is an OrderCancelReplaceRequest|102=99|434=1|10=102|8=FIX.4.4|9=145|35=9|34=8|49=SIMPLE|52=20240809-14:47:10.234|56=CLIENT1|11=32|37=unknown orderID|39=8|41=21|58=This is an OrderCancelReplaceRequest|102=99|434=1|10=195|8=FIX.4.4|9=56|35=0|34=9|49=SIMPLE|52=20240809-14:47:40.470|56=CLIENT1|10=161|8=FIX.4.4|9=57|35=0|34=10|49=SIMPLE|52=20240809-14:48:10.679|56=CLIENT1|10=211|