8=FIX.4.4|9=68|35=A|34=1|49=SIMPLE|52=20240613-13:35:34.416|56=CLIENT1|98=0|108=30|10=190|8=FIX.4.4|9=56|35=0|34=2|49=SIMPLE|52=20240613-13:36:05.133|56=CLIENT1|10=141|8=FIX.4.4|9=65|35=2|34=3|49=SIMPLE|52=20240613-13:36:10.164|56=CLIENT1|7=2|16=0|10=012|8=FIX.4.4|9=65|35=2|34=4|49=SIMPLE|52=20240613-13:36:10.185|56=CLIENT1|7=2|16=0|10=016|8=FIX.4.4|9=65|35=2|34=5|49=SIMPLE|52=20240613-13:36:10.197|56=CLIENT1|7=2|16=0|10=020|8=FIX.4.4|9=65|35=2|34=6|49=SIMPLE|52=20240613-13:36:10.210|56=CLIENT1|7=2|16=0|10=007|8=FIX.4.4|9=65|35=2|34=7|49=SIMPLE|52=20240613-13:36:10.220|56=CLIENT1|7=2|16=0|10=009|8=FIX.4.4|9=65|35=2|34=8|49=SIMPLE|52=20240613-13:36:10.232|56=CLIENT1|7=2|16=0|10=013|8=FIX.4.4|9=65|35=2|34=9|49=SIMPLE|52=20240613-13:36:10.243|56=CLIENT1|7=2|16=0|10=016|8=FIX.4.4|9=66|35=2|34=10|49=SIMPLE|52=20240613-13:36:10.255|56=CLIENT1|7=2|16=0|10=060|8=FIX.4.4|9=66|35=2|34=11|49=SIMPLE|52=20240613-13:36:10.267|56=CLIENT1|7=2|16=0|10=064|8=FIX.4.4|9=66|35=2|34=12|49=SIMPLE|52=20240613-13:36:10.280|56=CLIENT1|7=2|16=0|10=060|8=FIX.4.4|9=66|35=2|34=13|49=SIMPLE|52=20240613-13:36:10.290|56=CLIENT1|7=2|16=0|10=062|8=FIX.4.4|9=66|35=2|34=14|49=SIMPLE|52=20240613-13:36:10.302|56=CLIENT1|7=2|16=0|10=057|8=FIX.4.4|9=66|35=2|34=15|49=SIMPLE|52=20240613-13:36:10.314|56=CLIENT1|7=2|16=0|10=061|8=FIX.4.4|9=66|35=2|34=16|49=SIMPLE|52=20240613-13:36:10.326|56=CLIENT1|7=2|16=0|10=065|8=FIX.4.4|9=66|35=2|34=17|49=SIMPLE|52=20240613-13:36:10.336|56=CLIENT1|7=2|16=0|10=067|8=FIX.4.4|9=66|35=2|34=18|49=SIMPLE|52=20240613-13:36:10.349|56=CLIENT1|7=2|16=0|10=072|8=FIX.4.4|9=66|35=2|34=19|49=SIMPLE|52=20240613-13:36:10.359|56=CLIENT1|7=2|16=0|10=074|8=FIX.4.4|9=66|35=2|34=20|49=SIMPLE|52=20240613-13:36:10.371|56=CLIENT1|7=2|16=0|10=060|8=FIX.4.4|9=66|35=2|34=21|49=SIMPLE|52=20240613-13:36:10.384|56=CLIENT1|7=2|16=0|10=065|8=FIX.4.4|9=66|35=2|34=22|49=SIMPLE|52=20240613-13:36:10.397|56=CLIENT1|7=2|16=0|10=070|8=FIX.4.4|9=66|35=2|34=23|49=SIMPLE|52=20240613-13:36:10.408|56=CLIENT1|7=2|16=0|10=064|8=FIX.4.4|9=66|35=2|34=24|49=SIMPLE|52=20240613-13:36:10.420|56=CLIENT1|7=2|16=0|10=059|8=FIX.4.4|9=66|35=2|34=25|49=SIMPLE|52=20240613-13:36:10.433|56=CLIENT1|7=2|16=0|10=064|8=FIX.4.4|9=66|35=2|34=26|49=SIMPLE|52=20240613-13:36:10.443|56=CLIENT1|7=2|16=0|10=066|8=FIX.4.4|9=66|35=2|34=27|49=SIMPLE|52=20240613-13:36:10.456|56=CLIENT1|7=2|16=0|10=071|8=FIX.4.4|9=66|35=2|34=28|49=SIMPLE|52=20240613-13:36:10.468|56=CLIENT1|7=2|16=0|10=075|8=FIX.4.4|9=66|35=2|34=29|49=SIMPLE|52=20240613-13:36:10.481|56=CLIENT1|7=2|16=0|10=071|8=FIX.4.4|9=66|35=2|34=30|49=SIMPLE|52=20240613-13:36:10.491|56=CLIENT1|7=2|16=0|10=064|8=FIX.4.4|9=66|35=2|34=31|49=SIMPLE|52=20240613-13:36:10.503|56=CLIENT1|7=2|16=0|10=059|8=FIX.4.4|9=66|35=2|34=32|49=SIMPLE|52=20240613-13:36:10.517|56=CLIENT1|7=2|16=0|10=065|8=FIX.4.4|9=66|35=2|34=33|49=SIMPLE|52=20240613-13:36:10.530|56=CLIENT1|7=2|16=0|10=061|8=FIX.4.4|9=66|35=2|34=34|49=SIMPLE|52=20240613-13:36:10.540|56=CLIENT1|7=2|16=0|10=063|8=FIX.4.4|9=66|35=2|34=35|49=SIMPLE|52=20240613-13:36:10.554|56=CLIENT1|7=2|16=0|10=069|8=FIX.4.4|9=66|35=2|34=36|49=SIMPLE|52=20240613-13:36:10.567|56=CLIENT1|7=2|16=0|10=074|8=FIX.4.4|9=66|35=2|34=37|49=SIMPLE|52=20240613-13:36:10.580|56=CLIENT1|7=2|16=0|10=070|8=FIX.4.4|9=66|35=2|34=38|49=SIMPLE|52=20240613-13:36:10.590|56=CLIENT1|7=2|16=0|10=072|8=FIX.4.4|9=66|35=2|34=39|49=SIMPLE|52=20240613-13:36:10.603|56=CLIENT1|7=2|16=0|10=068|8=FIX.4.4|9=66|35=2|34=40|49=SIMPLE|52=20240613-13:36:10.615|56=CLIENT1|7=2|16=0|10=063|8=FIX.4.4|9=66|35=2|34=41|49=SIMPLE|52=20240613-13:36:10.628|56=CLIENT1|7=2|16=0|10=068|8=FIX.4.4|9=66|35=2|34=42|49=SIMPLE|52=20240613-13:36:10.638|56=CLIENT1|7=2|16=0|10=070|8=FIX.4.4|9=66|35=2|34=43|49=SIMPLE|52=20240613-13:36:10.650|56=CLIENT1|7=2|16=0|10=065|8=FIX.4.4|9=66|35=2|34=44|49=SIMPLE|52=20240613-13:36:10.661|56=CLIENT1|7=2|16=0|10=068|8=FIX.4.4|9=66|35=2|34=45|49=SIMPLE|52=20240613-13:36:10.677|56=CLIENT1|7=2|16=0|10=076|8=FIX.4.4|9=66|35=2|34=46|49=SIMPLE|52=20240613-13:36:10.698|56=CLIENT1|7=2|16=0|10=080|8=FIX.4.4|9=66|35=2|34=47|49=SIMPLE|52=20240613-13:36:10.712|56=CLIENT1|7=2|16=0|10=068|8=FIX.4.4|9=66|35=2|34=48|49=SIMPLE|52=20240613-13:36:10.723|56=CLIENT1|7=2|16=0|10=071|8=FIX.4.4|9=66|35=2|34=49|49=SIMPLE|52=20240613-13:36:10.734|56=CLIENT1|7=2|16=0|10=074|8=FIX.4.4|9=66|35=2|34=50|49=SIMPLE|52=20240613-13:36:10.745|56=CLIENT1|7=2|16=0|10=068|8=FIX.4.4|9=66|35=2|34=51|49=SIMPLE|52=20240613-13:36:10.757|56=CLIENT1|7=2|16=0|10=072|8=FIX.4.4|9=66|35=2|34=52|49=SIMPLE|52=20240613-13:36:10.769|56=CLIENT1|7=2|16=0|10=076|8=FIX.4.4|9=66|35=2|34=53|49=SIMPLE|52=20240613-13:36:10.782|56=CLIENT1|7=2|16=0|10=072|8=FIX.4.4|9=66|35=2|34=54|49=SIMPLE|52=20240613-13:36:10.792|56=CLIENT1|7=2|16=0|10=074|8=FIX.4.4|9=66|35=2|34=55|49=SIMPLE|52=20240613-13:36:10.804|56=CLIENT1|7=2|16=0|10=069|8=FIX.4.4|9=66|35=2|34=56|49=SIMPLE|52=20240613-13:36:10.817|56=CLIENT1|7=2|16=0|10=074|8=FIX.4.4|9=66|35=2|34=57|49=SIMPLE|52=20240613-13:36:10.830|56=CLIENT1|7=2|16=0|10=070|8=FIX.4.4|9=66|35=2|34=58|49=SIMPLE|52=20240613-13:36:10.842|56=CLIENT1|7=2|16=0|10=074|8=FIX.4.4|9=66|35=2|34=59|49=SIMPLE|52=20240613-13:36:10.855|56=CLIENT1|7=2|16=0|10=079|8=FIX.4.4|9=66|35=2|34=60|49=SIMPLE|52=20240613-13:36:10.868|56=CLIENT1|7=2|16=0|10=075|8=FIX.4.4|9=66|35=2|34=61|49=SIMPLE|52=20240613-13:36:10.882|56=CLIENT1|7=2|16=0|10=072|8=FIX.4.4|9=66|35=2|34=62|49=SIMPLE|52=20240613-13:36:10.892|56=CLIENT1|7=2|16=0|10=074|8=FIX.4.4|9=66|35=2|34=63|49=SIMPLE|52=20240613-13:36:10.904|56=CLIENT1|7=2|16=0|10=069|8=FIX.4.4|9=66|35=2|34=64|49=SIMPLE|52=20240613-13:36:10.917|56=CLIENT1|7=2|16=0|10=074|8=FIX.4.4|9=66|35=2|34=65|49=SIMPLE|52=20240613-13:36:10.940|56=CLIENT1|7=2|16=0|10=071|8=FIX.4.4|9=66|35=2|34=66|49=SIMPLE|52=20240613-13:36:10.952|56=CLIENT1|7=2|16=0|10=075|8=FIX.4.4|9=66|35=2|34=67|49=SIMPLE|52=20240613-13:36:10.965|56=CLIENT1|7=2|16=0|10=080|8=FIX.4.4|9=66|35=2|34=68|49=SIMPLE|52=20240613-13:36:10.974|56=CLIENT1|7=2|16=0|10=081|8=FIX.4.4|9=66|35=2|34=69|49=SIMPLE|52=20240613-13:36:10.986|56=CLIENT1|7=2|16=0|10=085|8=FIX.4.4|9=66|35=2|34=70|49=SIMPLE|52=20240613-13:36:10.998|56=CLIENT1|7=2|16=0|10=080|8=FIX.4.4|9=66|35=2|34=71|49=SIMPLE|52=20240613-13:36:11.009|56=CLIENT1|7=2|16=0|10=065|8=FIX.4.4|9=66|35=2|34=72|49=SIMPLE|52=20240613-13:36:11.021|56=CLIENT1|7=2|16=0|10=060|8=FIX.4.4|9=66|35=2|34=73|49=SIMPLE|52=20240613-13:36:11.033|56=CLIENT1|7=2|16=0|10=064|8=FIX.4.4|9=66|35=2|34=74|49=SIMPLE|52=20240613-13:36:11.043|56=CLIENT1|7=2|16=0|10=066|8=FIX.4.4|9=66|35=2|34=75|49=SIMPLE|52=20240613-13:36:11.055|56=CLIENT1|7=2|16=0|10=070|8=FIX.4.4|9=66|35=2|34=76|49=SIMPLE|52=20240613-13:36:11.066|56=CLIENT1|7=2|16=0|10=073|8=FIX.4.4|9=66|35=2|34=77|49=SIMPLE|52=20240613-13:36:11.076|56=CLIENT1|7=2|16=0|10=075|8=FIX.4.4|9=66|35=2|34=78|49=SIMPLE|52=20240613-13:36:11.088|56=CLIENT1|7=2|16=0|10=079|8=FIX.4.4|9=66|35=2|34=79|49=SIMPLE|52=20240613-13:36:11.100|56=CLIENT1|7=2|16=0|10=065|8=FIX.4.4|9=66|35=2|34=80|49=SIMPLE|52=20240613-13:36:11.112|56=CLIENT1|7=2|16=0|10=060|8=FIX.4.4|9=66|35=2|34=81|49=SIMPLE|52=20240613-13:36:11.122|56=CLIENT1|7=2|16=0|10=062|8=FIX.4.4|9=66|35=2|34=82|49=SIMPLE|52=20240613-13:36:11.135|56=CLIENT1|7=2|16=0|10=067|8=FIX.4.4|9=66|35=2|34=83|49=SIMPLE|52=20240613-13:36:11.145|56=CLIENT1|7=2|16=0|10=069|8=FIX.4.4|9=66|35=2|34=84|49=SIMPLE|52=20240613-13:36:11.161|56=CLIENT1|7=2|16=0|10=068|8=FIX.4.4|9=66|35=2|34=85|49=SIMPLE|52=20240613-13:36:11.174|56=CLIENT1|7=2|16=0|10=073|8=FIX.4.4|9=66|35=2|34=86|49=SIMPLE|52=20240613-13:36:11.187|56=CLIENT1|7=2|16=0|10=078|8=FIX.4.4|9=66|35=2|34=87|49=SIMPLE|52=20240613-13:36:11.200|56=CLIENT1|7=2|16=0|10=065|8=FIX.4.4|9=66|35=2|34=88|49=SIMPLE|52=20240613-13:36:11.213|56=CLIENT1|7=2|16=0|10=070|8=FIX.4.4|9=66|35=2|34=89|49=SIMPLE|52=20240613-13:36:11.223|56=CLIENT1|7=2|16=0|10=072|8=FIX.4.4|9=66|35=2|34=90|49=SIMPLE|52=20240613-13:36:11.237|56=CLIENT1|7=2|16=0|10=069|8=FIX.4.4|9=66|35=2|34=91|49=SIMPLE|52=20240613-13:36:11.250|56=CLIENT1|7=2|16=0|10=065|8=FIX.4.4|9=66|35=2|34=92|49=SIMPLE|52=20240613-13:36:11.261|56=CLIENT1|7=2|16=0|10=068|8=FIX.4.4|9=66|35=2|34=93|49=SIMPLE|52=20240613-13:36:11.274|56=CLIENT1|7=2|16=0|10=073|8=FIX.4.4|9=66|35=2|34=94|49=SIMPLE|52=20240613-13:36:11.290|56=CLIENT1|7=2|16=0|10=072|8=FIX.4.4|9=66|35=2|34=95|49=SIMPLE|52=20240613-13:36:11.305|56=CLIENT1|7=2|16=0|10=070|8=FIX.4.4|9=66|35=2|34=96|49=SIMPLE|52=20240613-13:36:11.318|56=CLIENT1|7=2|16=0|10=075|8=FIX.4.4|9=66|35=2|34=97|49=SIMPLE|52=20240613-13:36:11.331|56=CLIENT1|7=2|16=0|10=071|8=FIX.4.4|9=66|35=2|34=98|49=SIMPLE|52=20240613-13:36:11.342|56=CLIENT1|7=2|16=0|10=074|8=FIX.4.4|9=66|35=2|34=99|49=SIMPLE|52=20240613-13:36:11.354|56=CLIENT1|7=2|16=0|10=078|8=FIX.4.4|9=67|35=2|34=100|49=SIMPLE|52=20240613-13:36:11.366|56=CLIENT1|7=2|16=0|10=113|8=FIX.4.4|9=67|35=2|34=101|49=SIMPLE|52=20240613-13:36:11.376|56=CLIENT1|7=2|16=0|10=115|8=FIX.4.4|9=67|35=2|34=102|49=SIMPLE|52=20240613-13:36:11.388|56=CLIENT1|7=2|16=0|10=119|8=FIX.4.4|9=67|35=2|34=103|49=SIMPLE|52=20240613-13:36:11.399|56=CLIENT1|7=2|16=0|10=122|8=FIX.4.4|9=67|35=2|34=104|49=SIMPLE|52=20240613-13:36:11.409|56=CLIENT1|7=2|16=0|10=115|8=FIX.4.4|9=67|35=2|34=105|49=SIMPLE|52=20240613-13:36:11.421|56=CLIENT1|7=2|16=0|10=110|8=FIX.4.4|9=67|35=2|34=106|49=SIMPLE|52=20240613-13:36:11.433|56=CLIENT1|7=2|16=0|10=114|8=FIX.4.4|9=67|35=2|34=107|49=SIMPLE|52=20240613-13:36:11.444|56=CLIENT1|7=2|16=0|10=117|8=FIX.4.4|9=67|35=2|34=108|49=SIMPLE|52=20240613-13:36:11.456|56=CLIENT1|7=2|16=0|10=121|8=FIX.4.4|9=67|35=2|34=109|49=SIMPLE|52=20240613-13:36:11.468|56=CLIENT1|7=2|16=0|10=125|8=FIX.4.4|9=67|35=2|34=110|49=SIMPLE|52=20240613-13:36:11.479|56=CLIENT1|7=2|16=0|10=119|8=FIX.4.4|9=67|35=2|34=111|49=SIMPLE|52=20240613-13:36:11.491|56=CLIENT1|7=2|16=0|10=114|8=FIX.4.4|9=67|35=2|34=112|49=SIMPLE|52=20240613-13:36:11.503|56=CLIENT1|7=2|16=0|10=109|8=FIX.4.4|9=67|35=2|34=113|49=SIMPLE|52=20240613-13:36:11.515|56=CLIENT1|7=2|16=0|10=113|8=FIX.4.4|9=67|35=2|34=114|49=SIMPLE|52=20240613-13:36:11.525|56=CLIENT1|7=2|16=0|10=115|8=FIX.4.4|9=67|35=2|34=115|49=SIMPLE|52=20240613-13:36:11.537|56=CLIENT1|7=2|16=0|10=119|8=FIX.4.4|9=67|35=2|34=116|49=SIMPLE|52=20240613-13:36:11.547|56=CLIENT1|7=2|16=0|10=121|8=FIX.4.4|9=67|35=2|34=117|49=SIMPLE|52=20240613-13:36:11.559|56=CLIENT1|7=2|16=0|10=125|8=FIX.4.4|9=67|35=2|34=118|49=SIMPLE|52=20240613-13:36:11.572|56=CLIENT1|7=2|16=0|10=121|8=FIX.4.4|9=67|35=2|34=119|49=SIMPLE|52=20240613-13:36:11.584|56=CLIENT1|7=2|16=0|10=125|8=FIX.4.4|9=67|35=2|34=120|49=SIMPLE|52=20240613-13:36:11.594|56=CLIENT1|7=2|16=0|10=118|8=FIX.4.4|9=67|35=2|34=121|49=SIMPLE|52=20240613-13:36:11.605|56=CLIENT1|7=2|16=0|10=112|8=FIX.4.4|9=67|35=2|34=122|49=SIMPLE|52=20240613-13:36:11.617|56=CLIENT1|7=2|16=0|10=116|8=FIX.4.4|9=67|35=2|34=123|49=SIMPLE|52=20240613-13:36:11.629|56=CLIENT1|7=2|16=0|10=120|8=FIX.4.4|9=67|35=2|34=124|49=SIMPLE|52=20240613-13:36:11.639|56=CLIENT1|7=2|16=0|10=122|8=FIX.4.4|9=67|35=2|34=125|49=SIMPLE|52=20240613-13:36:11.651|56=CLIENT1|7=2|16=0|10=117|8=FIX.4.4|9=67|35=2|34=126|49=SIMPLE|52=20240613-13:36:11.661|56=CLIENT1|7=2|16=0|10=119|8=FIX.4.4|9=67|35=2|34=127|49=SIMPLE|52=20240613-13:36:11.673|56=CLIENT1|7=2|16=0|10=123|8=FIX.4.4|9=67|35=2|34=128|49=SIMPLE|52=20240613-13:36:11.684|56=CLIENT1|7=2|16=0|10=126|8=FIX.4.4|9=67|35=2|34=129|49=SIMPLE|52=20240613-13:36:11.694|56=CLIENT1|7=2|16=0|10=128|8=FIX.4.4|9=67|35=2|34=130|49=SIMPLE|52=20240613-13:36:11.705|56=CLIENT1|7=2|16=0|10=113|8=FIX.4.4|9=67|35=2|34=131|49=SIMPLE|52=20240613-13:36:11.717|56=CLIENT1|7=2|16=0|10=117|8=FIX.4.4|9=67|35=2|34=132|49=SIMPLE|52=20240613-13:36:11.729|56=CLIENT1|7=2|16=0|10=121|8=FIX.4.4|9=67|35=2|34=133|49=SIMPLE|52=20240613-13:36:11.739|56=CLIENT1|7=2|16=0|10=123|8=FIX.4.4|9=67|35=2|34=134|49=SIMPLE|52=20240613-13:36:11.752|56=CLIENT1|7=2|16=0|10=119|8=FIX.4.4|9=67|35=2|34=135|49=SIMPLE|52=20240613-13:36:11.762|56=CLIENT1|7=2|16=0|10=121|8=FIX.4.4|9=67|35=2|34=136|49=SIMPLE|52=20240613-13:36:11.774|56=CLIENT1|7=2|16=0|10=125|8=FIX.4.4|9=67|35=2|34=137|49=SIMPLE|52=20240613-13:36:11.787|56=CLIENT1|7=2|16=0|10=130|8=FIX.4.4|9=67|35=2|34=138|49=SIMPLE|52=20240613-13:36:11.799|56=CLIENT1|7=2|16=0|10=134|8=FIX.4.4|9=67|35=2|34=139|49=SIMPLE|52=20240613-13:36:11.809|56=CLIENT1|7=2|16=0|10=127|8=FIX.4.4|9=67|35=2|34=140|49=SIMPLE|52=20240613-13:36:11.821|56=CLIENT1|7=2|16=0|10=113|8=FIX.4.4|9=67|35=2|34=141|49=SIMPLE|52=20240613-13:36:11.833|56=CLIENT1|7=2|16=0|10=117|8=FIX.4.4|9=67|35=2|34=142|49=SIMPLE|52=20240613-13:36:11.842|56=CLIENT1|7=2|16=0|10=118|8=FIX.4.4|9=67|35=2|34=143|49=SIMPLE|52=20240613-13:36:11.854|56=CLIENT1|7=2|16=0|10=122|8=FIX.4.4|9=67|35=2|34=144|49=SIMPLE|52=20240613-13:36:11.863|56=CLIENT1|7=2|16=0|10=123|8=FIX.4.4|9=67|35=2|34=145|49=SIMPLE|52=20240613-13:36:11.875|56=CLIENT1|7=2|16=0|10=127|8=FIX.4.4|9=67|35=2|34=146|49=SIMPLE|52=20240613-13:36:11.887|56=CLIENT1|7=2|16=0|10=131|8=FIX.4.4|9=67|35=2|34=147|49=SIMPLE|52=20240613-13:36:11.899|56=CLIENT1|7=2|16=0|10=135|8=FIX.4.4|9=67|35=2|34=148|49=SIMPLE|52=20240613-13:36:11.909|56=CLIENT1|7=2|16=0|10=128|8=FIX.4.4|9=67|35=2|34=149|49=SIMPLE|52=20240613-13:36:11.921|56=CLIENT1|7=2|16=0|10=123|8=FIX.4.4|9=67|35=2|34=150|49=SIMPLE|52=20240613-13:36:11.932|56=CLIENT1|7=2|16=0|10=117|8=FIX.4.4|9=67|35=2|34=151|49=SIMPLE|52=20240613-13:36:11.942|56=CLIENT1|7=2|16=0|10=119|8=FIX.4.4|9=67|35=2|34=152|49=SIMPLE|52=20240613-13:36:11.954|56=CLIENT1|7=2|16=0|10=123|8=FIX.4.4|9=67|35=2|34=153|49=SIMPLE|52=20240613-13:36:11.964|56=CLIENT1|7=2|16=0|10=125|8=FIX.4.4|9=67|35=2|34=154|49=SIMPLE|52=20240613-13:36:11.975|56=CLIENT1|7=2|16=0|10=128|8=FIX.4.4|9=67|35=2|34=155|49=SIMPLE|52=20240613-13:36:11.987|56=CLIENT1|7=2|16=0|10=132|8=FIX.4.4|9=67|35=2|34=156|49=SIMPLE|52=20240613-13:36:11.999|56=CLIENT1|7=2|16=0|10=136|8=FIX.4.4|9=67|35=2|34=157|49=SIMPLE|52=20240613-13:36:12.009|56=CLIENT1|7=2|16=0|10=120|8=FIX.4.4|9=67|35=2|34=158|49=SIMPLE|52=20240613-13:36:12.021|56=CLIENT1|7=2|16=0|10=115|8=FIX.4.4|9=67|35=2|34=159|49=SIMPLE|52=20240613-13:36:12.033|56=CLIENT1|7=2|16=0|10=119|8=FIX.4.4|9=67|35=2|34=160|49=SIMPLE|52=20240613-13:36:12.044|56=CLIENT1|7=2|16=0|10=113|8=FIX.4.4|9=67|35=2|34=161|49=SIMPLE|52=20240613-13:36:12.057|56=CLIENT1|7=2|16=0|10=118|8=FIX.4.4|9=67|35=2|34=162|49=SIMPLE|52=20240613-13:36:12.069|56=CLIENT1|7=2|16=0|10=122|8=FIX.4.4|9=67|35=2|34=163|49=SIMPLE|52=20240613-13:36:12.080|56=CLIENT1|7=2|16=0|10=116|8=FIX.4.4|9=67|35=2|34=164|49=SIMPLE|52=20240613-13:36:12.093|56=CLIENT1|7=2|16=0|10=121|8=FIX.4.4|9=67|35=2|34=165|49=SIMPLE|52=20240613-13:36:12.105|56=CLIENT1|7=2|16=0|10=116|8=FIX.4.4|9=67|35=2|34=166|49=SIMPLE|52=20240613-13:36:12.118|56=CLIENT1|7=2|16=0|10=121|8=FIX.4.4|9=67|35=2|34=167|49=SIMPLE|52=20240613-13:36:12.131|56=CLIENT1|7=2|16=0|10=117|8=FIX.4.4|9=67|35=2|34=168|49=SIMPLE|52=20240613-13:36:12.142|56=CLIENT1|7=2|16=0|10=120|8=FIX.4.4|9=67|35=2|34=169|49=SIMPLE|52=20240613-13:36:12.157|56=CLIENT1|7=2|16=0|10=127|8=FIX.4.4|9=67|35=2|34=170|49=SIMPLE|52=20240613-13:36:12.171|56=CLIENT1|7=2|16=0|10=115|8=FIX.4.4|9=67|35=2|34=171|49=SIMPLE|52=20240613-13:36:12.184|56=CLIENT1|7=2|16=0|10=120|8=FIX.4.4|9=67|35=2|34=172|49=SIMPLE|52=20240613-13:36:12.194|56=CLIENT1|7=2|16=0|10=122|8=FIX.4.4|9=67|35=2|34=173|49=SIMPLE|52=20240613-13:36:12.208|56=CLIENT1|7=2|16=0|10=119|8=FIX.4.4|9=67|35=2|34=174|49=SIMPLE|52=20240613-13:36:12.222|56=CLIENT1|7=2|16=0|10=116|8=FIX.4.4|9=67|35=2|34=175|49=SIMPLE|52=20240613-13:36:12.235|56=CLIENT1|7=2|16=0|10=121|8=FIX.4.4|9=67|35=2|34=176|49=SIMPLE|52=20240613-13:36:12.245|56=CLIENT1|7=2|16=0|10=123|8=FIX.4.4|9=67|35=2|34=177|49=SIMPLE|52=20240613-13:36:12.259|56=CLIENT1|7=2|16=0|10=129|8=FIX.4.4|9=67|35=2|34=178|49=SIMPLE|52=20240613-13:36:12.272|56=CLIENT1|7=2|16=0|10=125|8=FIX.4.4|9=67|35=2|34=179|49=SIMPLE|52=20240613-13:36:12.284|56=CLIENT1|7=2|16=0|10=129|8=FIX.4.4|9=67|35=2|34=180|49=SIMPLE|52=20240613-13:36:12.295|56=CLIENT1|7=2|16=0|10=123|8=FIX.4.4|9=67|35=2|34=181|49=SIMPLE|52=20240613-13:36:12.307|56=CLIENT1|7=2|16=0|10=118|8=FIX.4.4|9=67|35=2|34=182|49=SIMPLE|52=20240613-13:36:12.318|56=CLIENT1|7=2|16=0|10=121|8=FIX.4.4|9=67|35=2|34=183|49=SIMPLE|52=20240613-13:36:12.330|56=CLIENT1|7=2|16=0|10=116|8=FIX.4.4|9=67|35=2|34=184|49=SIMPLE|52=20240613-13:36:12.340|56=CLIENT1|7=2|16=0|10=118|8=FIX.4.4|9=67|35=2|34=185|49=SIMPLE|52=20240613-13:36:12.350|56=CLIENT1|7=2|16=0|10=120|8=FIX.4.4|9=67|35=2|34=186|49=SIMPLE|52=20240613-13:36:12.362|56=CLIENT1|7=2|16=0|10=124|8=FIX.4.4|9=67|35=2|34=187|49=SIMPLE|52=20240613-13:36:12.374|56=CLIENT1|7=2|16=0|10=128|8=FIX.4.4|9=67|35=2|34=188|49=SIMPLE|52=20240613-13:36:12.387|56=CLIENT1|7=2|16=0|10=133|8=FIX.4.4|9=67|35=2|34=189|49=SIMPLE|52=20240613-13:36:12.397|56=CLIENT1|7=2|16=0|10=135|8=FIX.4.4|9=67|35=2|34=190|49=SIMPLE|52=20240613-13:36:12.409|56=CLIENT1|7=2|16=0|10=121|8=FIX.4.4|9=67|35=2|34=191|49=SIMPLE|52=20240613-13:36:12.422|56=CLIENT1|7=2|16=0|10=117|8=FIX.4.4|9=67|35=2|34=192|49=SIMPLE|52=20240613-13:36:12.434|56=CLIENT1|7=2|16=0|10=121|8=FIX.4.4|9=67|35=2|34=193|49=SIMPLE|52=20240613-13:36:12.443|56=CLIENT1|7=2|16=0|10=122|8=FIX.4.4|9=67|35=2|34=194|49=SIMPLE|52=20240613-13:36:12.455|56=CLIENT1|7=2|16=0|10=126|8=FIX.4.4|9=67|35=2|34=195|49=SIMPLE|52=20240613-13:36:12.464|56=CLIENT1|7=2|16=0|10=127|8=FIX.4.4|9=67|35=2|34=196|49=SIMPLE|52=20240613-13:36:12.476|56=CLIENT1|7=2|16=0|10=131|8=FIX.4.4|9=67|35=2|34=197|49=SIMPLE|52=20240613-13:36:12.487|56=CLIENT1|7=2|16=0|10=134|8=FIX.4.4|9=67|35=2|34=198|49=SIMPLE|52=20240613-13:36:12.497|56=CLIENT1|7=2|16=0|10=136|8=FIX.4.4|9=67|35=2|34=199|49=SIMPLE|52=20240613-13:36:12.509|56=CLIENT1|7=2|16=0|10=131|8=FIX.4.4|9=67|35=2|34=200|49=SIMPLE|52=20240613-13:36:12.521|56=CLIENT1|7=2|16=0|10=108|8=FIX.4.4|9=67|35=2|34=201|49=SIMPLE|52=20240613-13:36:12.533|56=CLIENT1|7=2|16=0|10=112|8=FIX.4.4|9=67|35=2|34=202|49=SIMPLE|52=20240613-13:36:12.543|56=CLIENT1|7=2|16=0|10=114|8=FIX.4.4|9=67|35=2|34=203|49=SIMPLE|52=20240613-13:36:12.556|56=CLIENT1|7=2|16=0|10=119|8=FIX.4.4|9=67|35=2|34=204|49=SIMPLE|52=20240613-13:36:12.565|56=CLIENT1|7=2|16=0|10=120|8=FIX.4.4|9=67|35=2|34=205|49=SIMPLE|52=20240613-13:36:12.578|56=CLIENT1|7=2|16=0|10=125|8=FIX.4.4|9=67|35=2|34=206|49=SIMPLE|52=20240613-13:36:12.590|56=CLIENT1|7=2|16=0|10=120|8=FIX.4.4|9=67|35=2|34=207|49=SIMPLE|52=20240613-13:36:12.602|56=CLIENT1|7=2|16=0|10=115|8=FIX.4.4|9=67|35=2|34=208|49=SIMPLE|52=20240613-13:36:12.611|56=CLIENT1|7=2|16=0|10=116|8=FIX.4.4|9=67|35=2|34=209|49=SIMPLE|52=20240613-13:36:12.623|56=CLIENT1|7=2|16=0|10=120|8=FIX.4.4|9=67|35=2|34=210|49=SIMPLE|52=20240613-13:36:12.635|56=CLIENT1|7=2|16=0|10=115|8=FIX.4.4|9=67|35=2|34=211|49=SIMPLE|52=20240613-13:36:12.645|56=CLIENT1|7=2|16=0|10=117|8=FIX.4.4|9=67|35=2|34=212|49=SIMPLE|52=20240613-13:36:12.657|56=CLIENT1|7=2|16=0|10=121|8=FIX.4.4|9=67|35=2|34=213|49=SIMPLE|52=20240613-13:36:12.668|56=CLIENT1|7=2|16=0|10=124|8=FIX.4.4|9=67|35=2|34=214|49=SIMPLE|52=20240613-13:36:12.678|56=CLIENT1|7=2|16=0|10=126|8=FIX.4.4|9=67|35=2|34=215|49=SIMPLE|52=20240613-13:36:12.691|56=CLIENT1|7=2|16=0|10=122|8=FIX.4.4|9=67|35=2|34=216|49=SIMPLE|52=20240613-13:36:12.702|56=CLIENT1|7=2|16=0|10=116|8=FIX.4.4|9=67|35=2|34=217|49=SIMPLE|52=20240613-13:36:12.712|56=CLIENT1|7=2|16=0|10=118|8=FIX.4.4|9=67|35=2|34=218|49=SIMPLE|52=20240613-13:36:12.724|56=CLIENT1|7=2|16=0|10=122|8=FIX.4.4|9=67|35=2|34=219|49=SIMPLE|52=20240613-13:36:12.736|56=CLIENT1|7=2|16=0|10=126|8=FIX.4.4|9=67|35=2|34=220|49=SIMPLE|52=20240613-13:36:12.745|56=CLIENT1|7=2|16=0|10=118|8=FIX.4.4|9=67|35=2|34=221|49=SIMPLE|52=20240613-13:36:12.757|56=CLIENT1|7=2|16=0|10=122|8=FIX.4.4|9=67|35=2|34=222|49=SIMPLE|52=20240613-13:36:12.769|56=CLIENT1|7=2|16=0|10=126|8=FIX.4.4|9=67|35=2|34=223|49=SIMPLE|52=20240613-13:36:12.779|56=CLIENT1|7=2|16=0|10=128|8=FIX.4.4|9=67|35=2|34=224|49=SIMPLE|52=20240613-13:36:12.791|56=CLIENT1|7=2|16=0|10=123|8=FIX.4.4|9=67|35=2|34=225|49=SIMPLE|52=20240613-13:36:12.803|56=CLIENT1|7=2|16=0|10=118|8=FIX.4.4|9=67|35=2|34=226|49=SIMPLE|52=20240613-13:36:12.815|56=CLIENT1|7=2|16=0|10=122|8=FIX.4.4|9=67|35=2|34=227|49=SIMPLE|52=20240613-13:36:12.825|56=CLIENT1|7=2|16=0|10=124|8=FIX.4.4|9=67|35=2|34=228|49=SIMPLE|52=20240613-13:36:12.837|56=CLIENT1|7=2|16=0|10=128|8=FIX.4.4|9=67|35=2|34=229|49=SIMPLE|52=20240613-13:36:12.847|56=CLIENT1|7=2|16=0|10=130|8=FIX.4.4|9=67|35=2|34=230|49=SIMPLE|52=20240613-13:36:12.859|56=CLIENT1|7=2|16=0|10=125|8=FIX.4.4|9=67|35=2|34=231|49=SIMPLE|52=20240613-13:36:12.871|56=CLIENT1|7=2|16=0|10=120|8=FIX.4.4|9=67|35=2|34=232|49=SIMPLE|52=20240613-13:36:12.880|56=CLIENT1|7=2|16=0|10=121|8=FIX.4.4|9=67|35=2|34=233|49=SIMPLE|52=20240613-13:36:12.892|56=CLIENT1|7=2|16=0|10=125|8=FIX.4.4|9=67|35=2|34=234|49=SIMPLE|52=20240613-13:36:12.904|56=CLIENT1|7=2|16=0|10=120|8=FIX.4.4|9=67|35=2|34=235|49=SIMPLE|52=20240613-13:36:12.916|56=CLIENT1|7=2|16=0|10=124|8=FIX.4.4|9=67|35=2|34=236|49=SIMPLE|52=20240613-13:36:12.926|56=CLIENT1|7=2|16=0|10=126|8=FIX.4.4|9=67|35=2|34=237|49=SIMPLE|52=20240613-13:36:12.938|56=CLIENT1|7=2|16=0|10=130|8=FIX.4.4|9=67|35=2|34=238|49=SIMPLE|52=20240613-13:36:12.947|56=CLIENT1|7=2|16=0|10=131|8=FIX.4.4|9=67|35=2|34=239|49=SIMPLE|52=20240613-13:36:12.959|56=CLIENT1|7=2|16=0|10=135|8=FIX.4.4|9=67|35=2|34=240|49=SIMPLE|52=20240613-13:36:12.971|56=CLIENT1|7=2|16=0|10=121|8=FIX.4.4|9=67|35=2|34=241|49=SIMPLE|52=20240613-13:36:12.980|56=CLIENT1|7=2|16=0|10=122|8=FIX.4.4|9=67|35=2|34=242|49=SIMPLE|52=20240613-13:36:12.992|56=CLIENT1|7=2|16=0|10=126|8=FIX.4.4|9=67|35=2|34=243|49=SIMPLE|52=20240613-13:36:13.004|56=CLIENT1|7=2|16=0|10=112|8=FIX.4.4|9=67|35=2|34=244|49=SIMPLE|52=20240613-13:36:13.013|56=CLIENT1|7=2|16=0|10=113|8=FIX.4.4|9=67|35=2|34=245|49=SIMPLE|52=20240613-13:36:13.025|56=CLIENT1|7=2|16=0|10=117|8=FIX.4.4|9=67|35=2|34=246|49=SIMPLE|52=20240613-13:36:13.037|56=CLIENT1|7=2|16=0|10=121|8=FIX.4.4|9=67|35=2|34=247|49=SIMPLE|52=20240613-13:36:13.047|56=CLIENT1|7=2|16=0|10=123|8=FIX.4.4|9=67|35=2|34=248|49=SIMPLE|52=20240613-13:36:13.059|56=CLIENT1|7=2|16=0|10=127|8=FIX.4.4|9=67|35=2|34=249|49=SIMPLE|52=20240613-13:36:13.071|56=CLIENT1|7=2|16=0|10=122|8=FIX.4.4|9=67|35=2|34=250|49=SIMPLE|52=20240613-13:36:13.080|56=CLIENT1|7=2|16=0|10=114|8=FIX.4.4|9=67|35=2|34=251|49=SIMPLE|52=20240613-13:36:13.092|56=CLIENT1|7=2|16=0|10=118|8=FIX.4.4|9=67|35=2|34=252|49=SIMPLE|52=20240613-13:36:13.104|56=CLIENT1|7=2|16=0|10=113|8=FIX.4.4|9=67|35=2|34=253|49=SIMPLE|52=20240613-13:36:13.113|56=CLIENT1|7=2|16=0|10=114|8=FIX.4.4|9=67|35=2|34=254|49=SIMPLE|52=20240613-13:36:13.124|56=CLIENT1|7=2|16=0|10=117|8=FIX.4.4|9=67|35=2|34=255|49=SIMPLE|52=20240613-13:36:13.136|56=CLIENT1|7=2|16=0|10=121|8=FIX.4.4|9=67|35=2|34=256|49=SIMPLE|52=20240613-13:36:13.146|56=CLIENT1|7=2|16=0|10=123|8=FIX.4.4|9=67|35=2|34=257|49=SIMPLE|52=20240613-13:36:13.158|56=CLIENT1|7=2|16=0|10=127|8=FIX.4.4|9=67|35=2|34=258|49=SIMPLE|52=20240613-13:36:13.170|56=CLIENT1|7=2|16=0|10=122|8=FIX.4.4|9=67|35=2|34=259|49=SIMPLE|52=20240613-13:36:13.180|56=CLIENT1|7=2|16=0|10=124|8=FIX.4.4|9=67|35=2|34=260|49=SIMPLE|52=20240613-13:36:13.191|56=CLIENT1|7=2|16=0|10=118|8=FIX.4.4|9=67|35=2|34=261|49=SIMPLE|52=20240613-13:36:13.203|56=CLIENT1|7=2|16=0|10=113|8=FIX.4.4|9=67|35=2|34=262|49=SIMPLE|52=20240613-13:36:13.213|56=CLIENT1|7=2|16=0|10=115|8=FIX.4.4|9=67|35=2|34=263|49=SIMPLE|52=20240613-13:36:13.224|56=CLIENT1|7=2|16=0|10=118|8=FIX.4.4|9=67|35=2|34=264|49=SIMPLE|52=20240613-13:36:13.235|56=CLIENT1|7=2|16=0|10=121|8=FIX.4.4|9=67|35=2|34=265|49=SIMPLE|52=20240613-13:36:13.245|56=CLIENT1|7=2|16=0|10=123|8=FIX.4.4|9=67|35=2|34=266|49=SIMPLE|52=20240613-13:36:13.256|56=CLIENT1|7=2|16=0|10=126|8=FIX.4.4|9=67|35=2|34=267|49=SIMPLE|52=20240613-13:36:13.266|56=CLIENT1|7=2|16=0|10=128|8=FIX.4.4|9=67|35=2|34=268|49=SIMPLE|52=20240613-13:36:13.278|56=CLIENT1|7=2|16=0|10=132|8=FIX.4.4|9=67|35=2|34=269|49=SIMPLE|52=20240613-13:36:13.290|56=CLIENT1|7=2|16=0|10=127|8=FIX.4.4|9=67|35=2|34=270|49=SIMPLE|52=20240613-13:36:13.301|56=CLIENT1|7=2|16=0|10=112|8=FIX.4.4|9=67|35=2|34=271|49=SIMPLE|52=20240613-13:36:13.311|56=CLIENT1|7=2|16=0|10=114|8=FIX.4.4|9=67|35=2|34=272|49=SIMPLE|52=20240613-13:36:13.323|56=CLIENT1|7=2|16=0|10=118|8=FIX.4.4|9=67|35=2|34=273|49=SIMPLE|52=20240613-13:36:13.334|56=CLIENT1|7=2|16=0|10=121|8=FIX.4.4|9=67|35=2|34=274|49=SIMPLE|52=20240613-13:36:13.344|56=CLIENT1|7=2|16=0|10=123|8=FIX.4.4|9=67|35=2|34=275|49=SIMPLE|52=20240613-13:36:13.355|56=CLIENT1|7=2|16=0|10=126|8=FIX.4.4|9=67|35=2|34=276|49=SIMPLE|52=20240613-13:36:13.376|56=CLIENT1|7=2|16=0|10=130|8=FIX.4.4|9=67|35=2|34=277|49=SIMPLE|52=20240613-13:36:13.388|56=CLIENT1|7=2|16=0|10=134|8=FIX.4.4|9=67|35=2|34=278|49=SIMPLE|52=20240613-13:36:13.397|56=CLIENT1|7=2|16=0|10=135|8=FIX.4.4|9=67|35=2|34=279|49=SIMPLE|52=20240613-13:36:13.409|56=CLIENT1|7=2|16=0|10=130|8=FIX.4.4|9=67|35=2|34=280|49=SIMPLE|52=20240613-13:36:13.421|56=CLIENT1|7=2|16=0|10=116|8=FIX.4.4|9=67|35=2|34=281|49=SIMPLE|52=20240613-13:36:13.430|56=CLIENT1|7=2|16=0|10=117|8=FIX.4.4|9=67|35=2|34=282|49=SIMPLE|52=20240613-13:36:13.442|56=CLIENT1|7=2|16=0|10=121|8=FIX.4.4|9=67|35=2|34=283|49=SIMPLE|52=20240613-13:36:13.451|56=CLIENT1|7=2|16=0|10=122|8=FIX.4.4|9=67|35=2|34=284|49=SIMPLE|52=20240613-13:36:13.463|56=CLIENT1|7=2|16=0|10=126|8=FIX.4.4|9=67|35=2|34=285|49=SIMPLE|52=20240613-13:36:13.475|56=CLIENT1|7=2|16=0|10=130|8=FIX.4.4|9=67|35=2|34=286|49=SIMPLE|52=20240613-13:36:13.487|56=CLIENT1|7=2|16=0|10=134|8=FIX.4.4|9=67|35=2|34=287|49=SIMPLE|52=20240613-13:36:13.497|56=CLIENT1|7=2|16=0|10=136|8=FIX.4.4|9=67|35=2|34=288|49=SIMPLE|52=20240613-13:36:13.509|56=CLIENT1|7=2|16=0|10=131|8=FIX.4.4|9=67|35=2|34=289|49=SIMPLE|52=20240613-13:36:13.521|56=CLIENT1|7=2|16=0|10=126|8=FIX.4.4|9=67|35=2|34=290|49=SIMPLE|52=20240613-13:36:13.533|56=CLIENT1|7=2|16=0|10=121|8=FIX.4.4|9=67|35=2|34=291|49=SIMPLE|52=20240613-13:36:13.543|56=CLIENT1|7=2|16=0|10=123|8=FIX.4.4|9=67|35=2|34=292|49=SIMPLE|52=20240613-13:36:13.552|56=CLIENT1|7=2|16=0|10=124|8=FIX.4.4|9=67|35=2|34=293|49=SIMPLE|52=20240613-13:36:13.574|56=CLIENT1|7=2|16=0|10=129|8=FIX.4.4|9=67|35=2|34=294|49=SIMPLE|52=20240613-13:36:13.587|56=CLIENT1|7=2|16=0|10=134|8=FIX.4.4|9=67|35=2|34=295|49=SIMPLE|52=20240613-13:36:13.596|56=CLIENT1|7=2|16=0|10=135|8=FIX.4.4|9=67|35=2|34=296|49=SIMPLE|52=20240613-13:36:13.608|56=CLIENT1|7=2|16=0|10=130|8=FIX.4.4|9=67|35=2|34=297|49=SIMPLE|52=20240613-13:36:13.620|56=CLIENT1|7=2|16=0|10=125|8=FIX.4.4|9=67|35=2|34=298|49=SIMPLE|52=20240613-13:36:13.630|56=CLIENT1|7=2|16=0|10=127|8=FIX.4.4|9=67|35=2|34=299|49=SIMPLE|52=20240613-13:36:13.641|56=CLIENT1|7=2|16=0|10=130|8=FIX.4.4|9=67|35=2|34=300|49=SIMPLE|52=20240613-13:36:13.650|56=CLIENT1|7=2|16=0|10=113|8=FIX.4.4|9=67|35=2|34=301|49=SIMPLE|52=20240613-13:36:13.662|56=CLIENT1|7=2|16=0|10=117|8=FIX.4.4|9=67|35=2|34=302|49=SIMPLE|52=20240613-13:36:13.674|56=CLIENT1|7=2|16=0|10=121|8=FIX.4.4|9=67|35=2|34=303|49=SIMPLE|52=20240613-13:36:13.683|56=CLIENT1|7=2|16=0|10=122|8=FIX.4.4|9=67|35=2|34=304|49=SIMPLE|52=20240613-13:36:13.695|56=CLIENT1|7=2|16=0|10=126|8=FIX.4.4|9=67|35=2|34=305|49=SIMPLE|52=20240613-13:36:13.707|56=CLIENT1|7=2|16=0|10=121|8=FIX.4.4|9=67|35=2|34=306|49=SIMPLE|52=20240613-13:36:13.718|56=CLIENT1|7=2|16=0|10=124|8=FIX.4.4|9=67|35=2|34=307|49=SIMPLE|52=20240613-13:36:13.728|56=CLIENT1|7=2|16=0|10=126|8=FIX.4.4|9=67|35=2|34=308|49=SIMPLE|52=20240613-13:36:13.740|56=CLIENT1|7=2|16=0|10=121|8=FIX.4.4|9=67|35=2|34=309|49=SIMPLE|52=20240613-13:36:13.749|56=CLIENT1|7=2|16=0|10=131|8=FIX.4.4|9=67|35=2|34=310|49=SIMPLE|52=20240613-13:36:13.761|56=CLIENT1|7=2|16=0|10=117|8=FIX.4.4|9=67|35=2|34=311|49=SIMPLE|52=20240613-13:36:13.773|56=CLIENT1|7=2|16=0|10=121|8=FIX.4.4|9=67|35=2|34=312|49=SIMPLE|52=20240613-13:36:13.783|56=CLIENT1|7=2|16=0|10=123|8=FIX.4.4|9=67|35=2|34=313|49=SIMPLE|52=20240613-13:36:13.795|56=CLIENT1|7=2|16=0|10=127|8=FIX.4.4|9=67|35=2|34=314|49=SIMPLE|52=20240613-13:36:13.807|56=CLIENT1|7=2|16=0|10=122|8=FIX.4.4|9=67|35=2|34=315|49=SIMPLE|52=20240613-13:36:13.818|56=CLIENT1|7=2|16=0|10=125|8=FIX.4.4|9=67|35=2|34=316|49=SIMPLE|52=20240613-13:36:13.828|56=CLIENT1|7=2|16=0|10=127|8=FIX.4.4|9=67|35=2|34=317|49=SIMPLE|52=20240613-13:36:13.840|56=CLIENT1|7=2|16=0|10=122|8=FIX.4.4|9=67|35=2|34=318|49=SIMPLE|52=20240613-13:36:13.849|56=CLIENT1|7=2|16=0|10=132|8=FIX.4.4|9=67|35=2|34=319|49=SIMPLE|52=20240613-13:36:13.861|56=CLIENT1|7=2|16=0|10=127|8=FIX.4.4|9=67|35=2|34=320|49=SIMPLE|52=20240613-13:36:13.872|56=CLIENT1|7=2|16=0|10=121|8=FIX.4.4|9=67|35=2|34=321|49=SIMPLE|52=20240613-13:36:13.882|56=CLIENT1|7=2|16=0|10=123|8=FIX.4.4|9=67|35=2|34=322|49=SIMPLE|52=20240613-13:36:13.894|56=CLIENT1|7=2|16=0|10=127|8=FIX.4.4|9=67|35=2|34=323|49=SIMPLE|52=20240613-13:36:13.905|56=CLIENT1|7=2|16=0|10=121|8=FIX.4.4|9=67|35=2|34=324|49=SIMPLE|52=20240613-13:36:13.908|56=CLIENT1|7=2|16=0|10=125|8=FIX.4.4|9=67|35=2|34=325|49=SIMPLE|52=20240613-13:36:13.911|56=CLIENT1|7=2|16=0|10=120|8=FIX.4.4|9=67|35=2|34=326|49=SIMPLE|52=20240613-13:36:13.914|56=CLIENT1|7=2|16=0|10=124|8=FIX.4.4|9=67|35=2|34=327|49=SIMPLE|52=20240613-13:36:13.918|56=CLIENT1|7=2|16=0|10=129|8=FIX.4.4|9=67|35=2|34=328|49=SIMPLE|52=20240613-13:36:13.921|56=CLIENT1|7=2|16=0|10=124|8=FIX.4.4|9=67|35=2|34=329|49=SIMPLE|52=20240613-13:36:13.924|56=CLIENT1|7=2|16=0|10=128|8=FIX.4.4|9=67|35=2|34=330|49=SIMPLE|52=20240613-13:36:13.927|56=CLIENT1|7=2|16=0|10=123|8=FIX.4.4|9=67|35=2|34=331|49=SIMPLE|52=20240613-13:36:13.929|56=CLIENT1|7=2|16=0|10=126|8=FIX.4.4|9=67|35=2|34=332|49=SIMPLE|52=20240613-13:36:13.934|56=CLIENT1|7=2|16=0|10=123|8=FIX.4.4|9=67|35=2|34=333|49=SIMPLE|52=20240613-13:36:13.937|56=CLIENT1|7=2|16=0|10=127|8=FIX.4.4|9=67|35=2|34=334|49=SIMPLE|52=20240613-13:36:13.940|56=CLIENT1|7=2|16=0|10=122|8=FIX.4.4|9=67|35=2|34=335|49=SIMPLE|52=20240613-13:36:13.943|56=CLIENT1|7=2|16=0|10=126|8=FIX.4.4|9=67|35=2|34=336|49=SIMPLE|52=20240613-13:36:13.945|56=CLIENT1|7=2|16=0|10=129|8=FIX.4.4|9=67|35=2|34=337|49=SIMPLE|52=20240613-13:36:13.948|56=CLIENT1|7=2|16=0|10=133|8=FIX.4.4|9=67|35=2|34=338|49=SIMPLE|52=20240613-13:36:13.951|56=CLIENT1|7=2|16=0|10=128|8=FIX.4.4|9=67|35=2|34=339|49=SIMPLE|52=20240613-13:36:13.956|56=CLIENT1|7=2|16=0|10=134|8=FIX.4.4|9=67|35=2|34=340|49=SIMPLE|52=20240613-13:36:13.958|56=CLIENT1|7=2|16=0|10=128|8=FIX.4.4|9=67|35=2|34=341|49=SIMPLE|52=20240613-13:36:13.961|56=CLIENT1|7=2|16=0|10=123|8=FIX.4.4|9=67|35=2|34=342|49=SIMPLE|52=20240613-13:36:13.964|56=CLIENT1|7=2|16=0|10=127|8=FIX.4.4|9=67|35=2|34=343|49=SIMPLE|52=20240613-13:36:13.966|56=CLIENT1|7=2|16=0|10=130|8=FIX.4.4|9=67|35=2|34=344|49=SIMPLE|52=20240613-13:36:13.969|56=CLIENT1|7=2|16=0|10=134|8=FIX.4.4|9=67|35=2|34=345|49=SIMPLE|52=20240613-13:36:13.974|56=CLIENT1|7=2|16=0|10=131|8=FIX.4.4|9=67|35=2|34=346|49=SIMPLE|52=20240613-13:36:13.977|56=CLIENT1|7=2|16=0|10=135|8=FIX.4.4|9=67|35=2|34=347|49=SIMPLE|52=20240613-13:36:13.979|56=CLIENT1|7=2|16=0|10=138|8=FIX.4.4|9=67|35=2|34=348|49=SIMPLE|52=20240613-13:36:13.982|56=CLIENT1|7=2|16=0|10=133|8=FIX.4.4|9=67|35=2|34=349|49=SIMPLE|52=20240613-13:36:13.985|56=CLIENT1|7=2|16=0|10=137|8=FIX.4.4|9=67|35=2|34=350|49=SIMPLE|52=20240613-13:36:13.990|56=CLIENT1|7=2|16=0|10=125|8=FIX.4.4|9=67|35=2|34=351|49=SIMPLE|52=20240613-13:36:13.992|56=CLIENT1|7=2|16=0|10=128|8=FIX.4.4|9=67|35=2|34=352|49=SIMPLE|52=20240613-13:36:13.995|56=CLIENT1|7=2|16=0|10=132|8=FIX.4.4|9=67|35=2|34=353|49=SIMPLE|52=20240613-13:36:13.997|56=CLIENT1|7=2|16=0|10=135|8=FIX.4.4|9=67|35=2|34=354|49=SIMPLE|52=20240613-13:36:14.000|56=CLIENT1|7=2|16=0|10=112|8=FIX.4.4|9=67|35=2|34=355|49=SIMPLE|52=20240613-13:36:14.005|56=CLIENT1|7=2|16=0|10=118|8=FIX.4.4|9=67|35=2|34=356|49=SIMPLE|52=20240613-13:36:14.008|56=CLIENT1|7=2|16=0|10=122|8=FIX.4.4|9=67|35=2|34=357|49=SIMPLE|52=20240613-13:36:14.011|56=CLIENT1|7=2|16=0|10=117|8=FIX.4.4|9=67|35=2|34=358|49=SIMPLE|52=20240613-13:36:14.013|56=CLIENT1|7=2|16=0|10=120|8=FIX.4.4|9=67|35=2|34=359|49=SIMPLE|52=20240613-13:36:14.018|56=CLIENT1|7=2|16=0|10=126|8=FIX.4.4|9=67|35=2|34=360|49=SIMPLE|52=20240613-13:36:14.021|56=CLIENT1|7=2|16=0|10=112|8=FIX.4.4|9=67|35=2|34=361|49=SIMPLE|52=20240613-13:36:14.024|56=CLIENT1|7=2|16=0|10=116|8=FIX.4.4|9=67|35=2|34=362|49=SIMPLE|52=20240613-13:36:14.026|56=CLIENT1|7=2|16=0|10=119|8=FIX.4.4|9=67|35=2|34=363|49=SIMPLE|52=20240613-13:36:14.029|56=CLIENT1|7=2|16=0|10=123|8=FIX.4.4|9=67|35=2|34=364|49=SIMPLE|52=20240613-13:36:14.034|56=CLIENT1|7=2|16=0|10=120|8=FIX.4.4|9=67|35=2|34=365|49=SIMPLE|52=20240613-13:36:14.037|56=CLIENT1|7=2|16=0|10=124|8=FIX.4.4|9=67|35=2|34=366|49=SIMPLE|52=20240613-13:36:14.040|56=CLIENT1|7=2|16=0|10=119|8=FIX.4.4|9=67|35=2|34=367|49=SIMPLE|52=20240613-13:36:14.042|56=CLIENT1|7=2|16=0|10=122|8=FIX.4.4|9=67|35=2|34=368|49=SIMPLE|52=20240613-13:36:14.045|56=CLIENT1|7=2|16=0|10=126|8=FIX.4.4|9=67|35=2|34=369|49=SIMPLE|52=20240613-13:36:14.048|56=CLIENT1|7=2|16=0|10=130|8=FIX.4.4|9=67|35=2|34=370|49=SIMPLE|52=20240613-13:36:14.050|56=CLIENT1|7=2|16=0|10=115|8=FIX.4.4|9=67|35=2|34=371|49=SIMPLE|52=20240613-13:36:14.053|56=CLIENT1|7=2|16=0|10=119|8=FIX.4.4|9=67|35=2|34=372|49=SIMPLE|52=20240613-13:36:14.058|56=CLIENT1|7=2|16=0|10=125|8=FIX.4.4|9=67|35=2|34=373|49=SIMPLE|52=20240613-13:36:14.061|56=CLIENT1|7=2|16=0|10=120|8=FIX.4.4|9=67|35=2|34=374|49=SIMPLE|52=20240613-13:36:14.063|56=CLIENT1|7=2|16=0|10=123|8=FIX.4.4|9=67|35=2|34=375|49=SIMPLE|52=20240613-13:36:14.066|56=CLIENT1|7=2|16=0|10=127|8=FIX.4.4|9=67|35=2|34=376|49=SIMPLE|52=20240613-13:36:14.069|56=CLIENT1|7=2|16=0|10=131|8=FIX.4.4|9=67|35=2|34=377|49=SIMPLE|52=20240613-13:36:14.073|56=CLIENT1|7=2|16=0|10=127|8=FIX.4.4|9=67|35=2|34=378|49=SIMPLE|52=20240613-13:36:14.076|56=CLIENT1|7=2|16=0|10=131|8=FIX.4.4|9=67|35=2|34=379|49=SIMPLE|52=20240613-13:36:14.079|56=CLIENT1|7=2|16=0|10=135|8=FIX.4.4|9=67|35=2|34=380|49=SIMPLE|52=20240613-13:36:14.082|56=CLIENT1|7=2|16=0|10=121|8=FIX.4.4|9=67|35=2|34=381|49=SIMPLE|52=20240613-13:36:14.085|56=CLIENT1|7=2|16=0|10=125|8=FIX.4.4|9=67|35=2|34=382|49=SIMPLE|52=20240613-13:36:14.090|56=CLIENT1|7=2|16=0|10=122|8=FIX.4.4|9=67|35=2|34=383|49=SIMPLE|52=20240613-13:36:14.093|56=CLIENT1|7=2|16=0|10=126|8=FIX.4.4|9=67|35=2|34=384|49=SIMPLE|52=20240613-13:36:14.096|56=CLIENT1|7=2|16=0|10=130|8=FIX.4.4|9=67|35=2|34=385|49=SIMPLE|52=20240613-13:36:14.098|56=CLIENT1|7=2|16=0|10=133|8=FIX.4.4|9=67|35=2|34=386|49=SIMPLE|52=20240613-13:36:14.103|56=CLIENT1|7=2|16=0|10=121|8=FIX.4.4|9=67|35=2|34=387|49=SIMPLE|52=20240613-13:36:14.106|56=CLIENT1|7=2|16=0|10=125|8=FIX.4.4|9=67|35=2|34=388|49=SIMPLE|52=20240613-13:36:14.109|56=CLIENT1|7=2|16=0|10=129|8=FIX.4.4|9=67|35=2|34=389|49=SIMPLE|52=20240613-13:36:14.111|56=CLIENT1|7=2|16=0|10=123|8=FIX.4.4|9=67|35=2|34=390|49=SIMPLE|52=20240613-13:36:14.114|56=CLIENT1|7=2|16=0|10=118|8=FIX.4.4|9=67|35=2|34=391|49=SIMPLE|52=20240613-13:36:14.118|56=CLIENT1|7=2|16=0|10=123|8=FIX.4.4|9=67|35=2|34=392|49=SIMPLE|52=20240613-13:36:14.122|56=CLIENT1|7=2|16=0|10=119|8=FIX.4.4|9=67|35=2|34=393|49=SIMPLE|52=20240613-13:36:14.124|56=CLIENT1|7=2|16=0|10=122|8=FIX.4.4|9=67|35=2|34=394|49=SIMPLE|52=20240613-13:36:14.127|56=CLIENT1|7=2|16=0|10=126|8=FIX.4.4|9=67|35=2|34=395|49=SIMPLE|52=20240613-13:36:14.130|56=CLIENT1|7=2|16=0|10=121|8=FIX.4.4|9=67|35=2|34=396|49=SIMPLE|52=20240613-13:36:14.134|56=CLIENT1|7=2|16=0|10=126|8=FIX.4.4|9=67|35=2|34=397|49=SIMPLE|52=20240613-13:36:14.137|56=CLIENT1|7=2|16=0|10=130|8=FIX.4.4|9=67|35=2|34=398|49=SIMPLE|52=20240613-13:36:14.140|56=CLIENT1|7=2|16=0|10=125|8=FIX.4.4|9=67|35=2|34=399|49=SIMPLE|52=20240613-13:36:14.143|56=CLIENT1|7=2|16=0|10=129|8=FIX.4.4|9=67|35=2|34=400|49=SIMPLE|52=20240613-13:36:14.145|56=CLIENT1|7=2|16=0|10=114|8=FIX.4.4|9=67|35=2|34=401|49=SIMPLE|52=20240613-13:36:14.148|56=CLIENT1|7=2|16=0|10=118|8=FIX.4.4|9=67|35=2|34=402|49=SIMPLE|52=20240613-13:36:14.150|56=CLIENT1|7=2|16=0|10=112|8=FIX.4.4|9=67|35=2|34=403|49=SIMPLE|52=20240613-13:36:14.153|56=CLIENT1|7=2|16=0|10=116|8=FIX.4.4|9=67|35=2|34=404|49=SIMPLE|52=20240613-13:36:14.158|56=CLIENT1|7=2|16=0|10=122|8=FIX.4.4|9=67|35=2|34=405|49=SIMPLE|52=20240613-13:36:14.161|56=CLIENT1|7=2|16=0|10=117|8=FIX.4.4|9=67|35=2|34=406|49=SIMPLE|52=20240613-13:36:14.163|56=CLIENT1|7=2|16=0|10=120|8=FIX.4.4|9=67|35=2|34=407|49=SIMPLE|52=20240613-13:36:14.166|56=CLIENT1|7=2|16=0|10=124|8=FIX.4.4|9=67|35=2|34=408|49=SIMPLE|52=20240613-13:36:14.169|56=CLIENT1|7=2|16=0|10=128|8=FIX.4.4|9=67|35=2|34=409|49=SIMPLE|52=20240613-13:36:14.174|56=CLIENT1|7=2|16=0|10=125|8=FIX.4.4|9=67|35=2|34=410|49=SIMPLE|52=20240613-13:36:14.176|56=CLIENT1|7=2|16=0|10=119|8=FIX.4.4|9=67|35=2|34=411|49=SIMPLE|52=20240613-13:36:14.179|56=CLIENT1|7=2|16=0|10=123|8=FIX.4.4|9=67|35=2|34=412|49=SIMPLE|52=20240613-13:36:14.182|56=CLIENT1|7=2|16=0|10=118|8=FIX.4.4|9=67|35=2|34=413|49=SIMPLE|52=20240613-13:36:14.184|56=CLIENT1|7=2|16=0|10=121|8=FIX.4.4|9=67|35=2|34=414|49=SIMPLE|52=20240613-13:36:14.189|56=CLIENT1|7=2|16=0|10=127|8=FIX.4.4|9=67|35=2|34=415|49=SIMPLE|52=20240613-13:36:14.192|56=CLIENT1|7=2|16=0|10=122|8=FIX.4.4|9=67|35=2|34=416|49=SIMPLE|52=20240613-13:36:14.195|56=CLIENT1|7=2|16=0|10=126|8=FIX.4.4|9=67|35=2|34=417|49=SIMPLE|52=20240613-13:36:14.197|56=CLIENT1|7=2|16=0|10=129|8=FIX.4.4|9=67|35=2|34=418|49=SIMPLE|52=20240613-13:36:14.200|56=CLIENT1|7=2|16=0|10=115|8=FIX.4.4|9=67|35=2|34=419|49=SIMPLE|52=20240613-13:36:14.205|56=CLIENT1|7=2|16=0|10=121|8=FIX.4.4|9=67|35=2|34=420|49=SIMPLE|52=20240613-13:36:14.208|56=CLIENT1|7=2|16=0|10=116|8=FIX.4.4|9=67|35=2|34=421|49=SIMPLE|52=20240613-13:36:14.211|56=CLIENT1|7=2|16=0|10=111|8=FIX.4.4|9=67|35=2|34=422|49=SIMPLE|52=20240613-13:36:14.213|56=CLIENT1|7=2|16=0|10=114|8=FIX.4.4|9=67|35=2|34=423|49=SIMPLE|52=20240613-13:36:14.216|56=CLIENT1|7=2|16=0|10=118|8=FIX.4.4|9=67|35=2|34=424|49=SIMPLE|52=20240613-13:36:14.221|56=CLIENT1|7=2|16=0|10=115|8=FIX.4.4|9=67|35=2|34=425|49=SIMPLE|52=20240613-13:36:14.224|56=CLIENT1|7=2|16=0|10=119|8=FIX.4.4|9=67|35=2|34=426|49=SIMPLE|52=20240613-13:36:14.226|56=CLIENT1|7=2|16=0|10=122|8=FIX.4.4|9=67|35=2|34=427|49=SIMPLE|52=20240613-13:36:14.229|56=CLIENT1|7=2|16=0|10=126|8=FIX.4.4|9=67|35=2|34=428|49=SIMPLE|52=20240613-13:36:14.232|56=CLIENT1|7=2|16=0|10=121|8=FIX.4.4|9=67|35=2|34=429|49=SIMPLE|52=20240613-13:36:14.237|56=CLIENT1|7=2|16=0|10=127|8=FIX.4.4|9=67|35=2|34=430|49=SIMPLE|52=20240613-13:36:14.240|56=CLIENT1|7=2|16=0|10=113|8=FIX.4.4|9=67|35=2|34=431|49=SIMPLE|52=20240613-13:36:14.242|56=CLIENT1|7=2|16=0|10=116|8=FIX.4.4|9=67|35=2|34=432|49=SIMPLE|52=20240613-13:36:14.245|56=CLIENT1|7=2|16=0|10=120|8=FIX.4.4|9=67|35=2|34=433|49=SIMPLE|52=20240613-13:36:14.248|56=CLIENT1|7=2|16=0|10=124|8=FIX.4.4|9=67|35=2|34=434|49=SIMPLE|52=20240613-13:36:14.250|56=CLIENT1|7=2|16=0|10=118|8=FIX.4.4|9=67|35=2|34=435|49=SIMPLE|52=20240613-13:36:14.253|56=CLIENT1|7=2|16=0|10=122|8=FIX.4.4|9=67|35=2|34=436|49=SIMPLE|52=20240613-13:36:14.258|56=CLIENT1|7=2|16=0|10=128|8=FIX.4.4|9=67|35=2|34=437|49=SIMPLE|52=20240613-13:36:14.261|56=CLIENT1|7=2|16=0|10=123|8=FIX.4.4|9=67|35=2|34=438|49=SIMPLE|52=20240613-13:36:14.264|56=CLIENT1|7=2|16=0|10=127|8=FIX.4.4|9=67|35=2|34=439|49=SIMPLE|52=20240613-13:36:14.268|56=CLIENT1|7=2|16=0|10=132|8=FIX.4.4|9=67|35=2|34=440|49=SIMPLE|52=20240613-13:36:14.274|56=CLIENT1|7=2|16=0|10=121|8=FIX.4.4|9=67|35=2|34=441|49=SIMPLE|52=20240613-13:36:14.276|56=CLIENT1|7=2|16=0|10=124|8=FIX.4.4|9=67|35=2|34=442|49=SIMPLE|52=20240613-13:36:14.279|56=CLIENT1|7=2|16=0|10=128|8=FIX.4.4|9=67|35=2|34=443|49=SIMPLE|52=20240613-13:36:14.282|56=CLIENT1|7=2|16=0|10=123|8=FIX.4.4|9=67|35=2|34=444|49=SIMPLE|52=20240613-13:36:14.284|56=CLIENT1|7=2|16=0|10=126|8=FIX.4.4|9=67|35=2|34=445|49=SIMPLE|52=20240613-13:36:14.289|56=CLIENT1|7=2|16=0|10=132|8=FIX.4.4|9=67|35=2|34=446|49=SIMPLE|52=20240613-13:36:14.292|56=CLIENT1|7=2|16=0|10=127|8=FIX.4.4|9=67|35=2|34=447|49=SIMPLE|52=20240613-13:36:14.295|56=CLIENT1|7=2|16=0|10=131|8=FIX.4.4|9=67|35=2|34=448|49=SIMPLE|52=20240613-13:36:14.298|56=CLIENT1|7=2|16=0|10=135|8=FIX.4.4|9=67|35=2|34=449|49=SIMPLE|52=20240613-13:36:14.300|56=CLIENT1|7=2|16=0|10=120|8=FIX.4.4|9=67|35=2|34=450|49=SIMPLE|52=20240613-13:36:14.305|56=CLIENT1|7=2|16=0|10=117|8=FIX.4.4|9=67|35=2|34=451|49=SIMPLE|52=20240613-13:36:14.308|56=CLIENT1|7=2|16=0|10=121|8=FIX.4.4|9=67|35=2|34=452|49=SIMPLE|52=20240613-13:36:14.310|56=CLIENT1|7=2|16=0|10=115|8=FIX.4.4|9=67|35=2|34=453|49=SIMPLE|52=20240613-13:36:14.313|56=CLIENT1|7=2|16=0|10=119|8=FIX.4.4|9=67|35=2|34=454|49=SIMPLE|52=20240613-13:36:14.315|56=CLIENT1|7=2|16=0|10=122|8=FIX.4.4|9=67|35=2|34=455|49=SIMPLE|52=20240613-13:36:14.321|56=CLIENT1|7=2|16=0|10=120|8=FIX.4.4|9=67|35=2|34=456|49=SIMPLE|52=20240613-13:36:14.323|56=CLIENT1|7=2|16=0|10=123|8=FIX.4.4|9=67|35=2|34=457|49=SIMPLE|52=20240613-13:36:14.326|56=CLIENT1|7=2|16=0|10=127|8=FIX.4.4|9=67|35=2|34=458|49=SIMPLE|52=20240613-13:36:14.329|56=CLIENT1|7=2|16=0|10=131|8=FIX.4.4|9=67|35=2|34=459|49=SIMPLE|52=20240613-13:36:14.331|56=CLIENT1|7=2|16=0|10=125|8=FIX.4.4|9=67|35=2|34=460|49=SIMPLE|52=20240613-13:36:14.336|56=CLIENT1|7=2|16=0|10=122|8=FIX.4.4|9=67|35=2|34=461|49=SIMPLE|52=20240613-13:36:14.339|56=CLIENT1|7=2|16=0|10=126|8=FIX.4.4|9=67|35=2|34=462|49=SIMPLE|52=20240613-13:36:14.342|56=CLIENT1|7=2|16=0|10=121|8=FIX.4.4|9=67|35=2|34=463|49=SIMPLE|52=20240613-13:36:14.344|56=CLIENT1|7=2|16=0|10=124|8=FIX.4.4|9=67|35=2|34=464|49=SIMPLE|52=20240613-13:36:14.347|56=CLIENT1|7=2|16=0|10=128|8=FIX.4.4|9=67|35=2|34=465|49=SIMPLE|52=20240613-13:36:14.350|56=CLIENT1|7=2|16=0|10=123|8=FIX.4.4|9=67|35=2|34=466|49=SIMPLE|52=20240613-13:36:14.352|56=CLIENT1|7=2|16=0|10=126|8=FIX.4.4|9=67|35=2|34=467|49=SIMPLE|52=20240613-13:36:14.357|56=CLIENT1|7=2|16=0|10=132|8=FIX.4.4|9=67|35=2|34=468|49=SIMPLE|52=20240613-13:36:14.360|56=CLIENT1|7=2|16=0|10=127|8=FIX.4.4|9=67|35=2|34=469|49=SIMPLE|52=20240613-13:36:14.363|56=CLIENT1|7=2|16=0|10=131|8=FIX.4.4|9=67|35=2|34=470|49=SIMPLE|52=20240613-13:36:14.365|56=CLIENT1|7=2|16=0|10=125|8=FIX.4.4|9=67|35=2|34=471|49=SIMPLE|52=20240613-13:36:14.368|56=CLIENT1|7=2|16=0|10=129|8=FIX.4.4|9=67|35=2|34=472|49=SIMPLE|52=20240613-13:36:14.373|56=CLIENT1|7=2|16=0|10=126|8=FIX.4.4|9=67|35=2|34=473|49=SIMPLE|52=20240613-13:36:14.375|56=CLIENT1|7=2|16=0|10=129|8=FIX.4.4|9=67|35=2|34=474|49=SIMPLE|52=20240613-13:36:14.378|56=CLIENT1|7=2|16=0|10=133|8=FIX.4.4|9=67|35=2|34=475|49=SIMPLE|52=20240613-13:36:14.381|56=CLIENT1|7=2|16=0|10=128|8=FIX.4.4|9=67|35=2|34=476|49=SIMPLE|52=20240613-13:36:14.383|56=CLIENT1|7=2|16=0|10=131|8=FIX.4.4|9=67|35=2|34=477|49=SIMPLE|52=20240613-13:36:14.388|56=CLIENT1|7=2|16=0|10=137|8=FIX.4.4|9=67|35=2|34=478|49=SIMPLE|52=20240613-13:36:14.391|56=CLIENT1|7=2|16=0|10=132|8=FIX.4.4|9=67|35=2|34=479|49=SIMPLE|52=20240613-13:36:14.394|56=CLIENT1|7=2|16=0|10=136|8=FIX.4.4|9=67|35=2|34=480|49=SIMPLE|52=20240613-13:36:14.397|56=CLIENT1|7=2|16=0|10=131|8=FIX.4.4|9=67|35=2|34=481|49=SIMPLE|52=20240613-13:36:14.399|56=CLIENT1|7=2|16=0|10=134|8=FIX.4.4|9=67|35=2|34=482|49=SIMPLE|52=20240613-13:36:14.405|56=CLIENT1|7=2|16=0|10=123|8=FIX.4.4|9=67|35=2|34=483|49=SIMPLE|52=20240613-13:36:14.408|56=CLIENT1|7=2|16=0|10=127|8=FIX.4.4|9=67|35=2|34=484|49=SIMPLE|52=20240613-13:36:14.411|56=CLIENT1|7=2|16=0|10=122|8=FIX.4.4|9=67|35=2|34=485|49=SIMPLE|52=20240613-13:36:14.414|56=CLIENT1|7=2|16=0|10=126|8=FIX.4.4|9=67|35=2|34=486|49=SIMPLE|52=20240613-13:36:14.416|56=CLIENT1|7=2|16=0|10=129|8=FIX.4.4|9=67|35=2|34=487|49=SIMPLE|52=20240613-13:36:14.422|56=CLIENT1|7=2|16=0|10=127|8=FIX.4.4|9=67|35=2|34=488|49=SIMPLE|52=20240613-13:36:14.425|56=CLIENT1|7=2|16=0|10=131|8=FIX.4.4|9=67|35=2|34=489|49=SIMPLE|52=20240613-13:36:14.428|56=CLIENT1|7=2|16=0|10=135|8=FIX.4.4|9=67|35=2|34=490|49=SIMPLE|52=20240613-13:36:14.430|56=CLIENT1|7=2|16=0|10=120|8=FIX.4.4|9=67|35=2|34=491|49=SIMPLE|52=20240613-13:36:14.435|56=CLIENT1|7=2|16=0|10=126|8=FIX.4.4|9=67|35=2|34=492|49=SIMPLE|52=20240613-13:36:14.438|56=CLIENT1|7=2|16=0|10=130|8=FIX.4.4|9=67|35=2|34=493|49=SIMPLE|52=20240613-13:36:14.441|56=CLIENT1|7=2|16=0|10=125|8=FIX.4.4|9=67|35=2|34=494|49=SIMPLE|52=20240613-13:36:14.444|56=CLIENT1|7=2|16=0|10=129|8=FIX.4.4|9=67|35=2|34=495|49=SIMPLE|52=20240613-13:36:14.446|56=CLIENT1|7=2|16=0|10=132|8=FIX.4.4|9=67|35=2|34=496|49=SIMPLE|52=20240613-13:36:14.449|56=CLIENT1|7=2|16=0|10=136|8=FIX.4.4|9=67|35=2|34=497|49=SIMPLE|52=20240613-13:36:14.452|56=CLIENT1|7=2|16=0|10=131|8=FIX.4.4|9=67|35=2|34=498|49=SIMPLE|52=20240613-13:36:14.455|56=CLIENT1|7=2|16=0|10=135|8=FIX.4.4|9=67|35=2|34=499|49=SIMPLE|52=20240613-13:36:14.459|56=CLIENT1|7=2|16=0|10=140|8=FIX.4.4|9=67|35=2|34=500|49=SIMPLE|52=20240613-13:36:14.462|56=CLIENT1|7=2|16=0|10=117|8=FIX.4.4|9=67|35=2|34=501|49=SIMPLE|52=20240613-13:36:14.464|56=CLIENT1|7=2|16=0|10=120|8=FIX.4.4|9=67|35=2|34=502|49=SIMPLE|52=20240613-13:36:14.467|56=CLIENT1|7=2|16=0|10=124|8=FIX.4.4|9=67|35=2|34=503|49=SIMPLE|52=20240613-13:36:14.470|56=CLIENT1|7=2|16=0|10=119|8=FIX.4.4|9=67|35=2|34=504|49=SIMPLE|52=20240613-13:36:14.475|56=CLIENT1|7=2|16=0|10=125|8=FIX.4.4|9=67|35=2|34=505|49=SIMPLE|52=20240613-13:36:14.478|56=CLIENT1|7=2|16=0|10=129|8=FIX.4.4|9=67|35=2|34=506|49=SIMPLE|52=20240613-13:36:14.480|56=CLIENT1|7=2|16=0|10=123|8=FIX.4.4|9=67|35=2|34=507|49=SIMPLE|52=20240613-13:36:14.483|56=CLIENT1|7=2|16=0|10=127|8=FIX.4.4|9=67|35=2|34=508|49=SIMPLE|52=20240613-13:36:14.486|56=CLIENT1|7=2|16=0|10=131|8=FIX.4.4|9=67|35=2|34=509|49=SIMPLE|52=20240613-13:36:14.491|56=CLIENT1|7=2|16=0|10=128|8=FIX.4.4|9=67|35=2|34=510|49=SIMPLE|52=20240613-13:36:14.494|56=CLIENT1|7=2|16=0|10=123|8=FIX.4.4|9=67|35=2|34=511|49=SIMPLE|52=20240613-13:36:14.496|56=CLIENT1|7=2|16=0|10=126|8=FIX.4.4|9=67|35=2|34=512|49=SIMPLE|52=20240613-13:36:14.499|56=CLIENT1|7=2|16=0|10=130|8=FIX.4.4|9=67|35=2|34=513|49=SIMPLE|52=20240613-13:36:14.504|56=CLIENT1|7=2|16=0|10=118|8=FIX.4.4|9=67|35=2|34=514|49=SIMPLE|52=20240613-13:36:14.507|56=CLIENT1|7=2|16=0|10=122|8=FIX.4.4|9=67|35=2|34=515|49=SIMPLE|52=20240613-13:36:14.509|56=CLIENT1|7=2|16=0|10=125|8=FIX.4.4|9=67|35=2|34=516|49=SIMPLE|52=20240613-13:36:14.512|56=CLIENT1|7=2|16=0|10=120|8=FIX.4.4|9=67|35=2|34=517|49=SIMPLE|52=20240613-13:36:14.514|56=CLIENT1|7=2|16=0|10=123|8=FIX.4.4|9=67|35=2|34=518|49=SIMPLE|52=20240613-13:36:14.520|56=CLIENT1|7=2|16=0|10=121|8=FIX.4.4|9=67|35=2|34=519|49=SIMPLE|52=20240613-13:36:14.523|56=CLIENT1|7=2|16=0|10=125|8=FIX.4.4|9=67|35=2|34=520|49=SIMPLE|52=20240613-13:36:14.525|56=CLIENT1|7=2|16=0|10=119|8=FIX.4.4|9=67|35=2|34=521|49=SIMPLE|52=20240613-13:36:14.528|56=CLIENT1|7=2|16=0|10=123|8=FIX.4.4|9=67|35=2|34=522|49=SIMPLE|52=20240613-13:36:14.530|56=CLIENT1|7=2|16=0|10=117|8=FIX.4.4|9=67|35=2|34=523|49=SIMPLE|52=20240613-13:36:14.535|56=CLIENT1|7=2|16=0|10=123|8=FIX.4.4|9=67|35=2|34=524|49=SIMPLE|52=20240613-13:36:14.539|56=CLIENT1|7=2|16=0|10=128|8=FIX.4.4|9=67|35=2|34=525|49=SIMPLE|52=20240613-13:36:14.541|56=CLIENT1|7=2|16=0|10=122|8=FIX.4.4|9=67|35=2|34=526|49=SIMPLE|52=20240613-13:36:14.544|56=CLIENT1|7=2|16=0|10=126|8=FIX.4.4|9=67|35=2|34=527|49=SIMPLE|52=20240613-13:36:14.547|56=CLIENT1|7=2|16=0|10=130|8=FIX.4.4|9=67|35=2|34=528|49=SIMPLE|52=20240613-13:36:14.549|56=CLIENT1|7=2|16=0|10=133|8=FIX.4.4|9=67|35=2|34=529|49=SIMPLE|52=20240613-13:36:14.552|56=CLIENT1|7=2|16=0|10=128|8=FIX.4.4|9=67|35=2|34=530|49=SIMPLE|52=20240613-13:36:14.558|56=CLIENT1|7=2|16=0|10=126|8=FIX.4.4|9=67|35=2|34=531|49=SIMPLE|52=20240613-13:36:14.561|56=CLIENT1|7=2|16=0|10=121|8=FIX.4.4|9=67|35=2|34=532|49=SIMPLE|52=20240613-13:36:14.563|56=CLIENT1|7=2|16=0|10=124|8=FIX.4.4|9=67|35=2|34=533|49=SIMPLE|52=20240613-13:36:14.566|56=CLIENT1|7=2|16=0|10=128|8=FIX.4.4|9=67|35=2|34=534|49=SIMPLE|52=20240613-13:36:14.569|56=CLIENT1|7=2|16=0|10=132|8=FIX.4.4|9=67|35=2|34=535|49=SIMPLE|52=20240613-13:36:14.574|56=CLIENT1|7=2|16=0|10=129|8=FIX.4.4|9=67|35=2|34=536|49=SIMPLE|52=20240613-13:36:14.577|56=CLIENT1|7=2|16=0|10=133|8=FIX.4.4|9=67|35=2|34=537|49=SIMPLE|52=20240613-13:36:14.580|56=CLIENT1|7=2|16=0|10=128|8=FIX.4.4|9=67|35=2|34=538|49=SIMPLE|52=20240613-13:36:14.582|56=CLIENT1|7=2|16=0|10=131|8=FIX.4.4|9=67|35=2|34=539|49=SIMPLE|52=20240613-13:36:14.585|56=CLIENT1|7=2|16=0|10=135|8=FIX.4.4|9=67|35=2|34=540|49=SIMPLE|52=20240613-13:36:14.590|56=CLIENT1|7=2|16=0|10=123|8=FIX.4.4|9=67|35=2|34=541|49=SIMPLE|52=20240613-13:36:14.593|56=CLIENT1|7=2|16=0|10=127|8=FIX.4.4|9=67|35=2|34=542|49=SIMPLE|52=20240613-13:36:14.596|56=CLIENT1|7=2|16=0|10=131|8=FIX.4.4|9=67|35=2|34=543|49=SIMPLE|52=20240613-13:36:14.598|56=CLIENT1|7=2|16=0|10=134|8=FIX.4.4|9=67|35=2|34=544|49=SIMPLE|52=20240613-13:36:14.601|56=CLIENT1|7=2|16=0|10=120|8=FIX.4.4|9=67|35=2|34=545|49=SIMPLE|52=20240613-13:36:14.606|56=CLIENT1|7=2|16=0|10=126|8=FIX.4.4|9=67|35=2|34=546|49=SIMPLE|52=20240613-13:36:14.608|56=CLIENT1|7=2|16=0|10=129|8=FIX.4.4|9=67|35=2|34=547|49=SIMPLE|52=20240613-13:36:14.611|56=CLIENT1|7=2|16=0|10=124|8=FIX.4.4|9=67|35=2|34=548|49=SIMPLE|52=20240613-13:36:14.614|56=CLIENT1|7=2|16=0|10=128|8=FIX.4.4|9=67|35=2|34=549|49=SIMPLE|52=20240613-13:36:14.616|56=CLIENT1|7=2|16=0|10=131|8=FIX.4.4|9=67|35=2|34=550|49=SIMPLE|52=20240613-13:36:14.622|56=CLIENT1|7=2|16=0|10=120|8=FIX.4.4|9=67|35=2|34=551|49=SIMPLE|52=20240613-13:36:14.624|56=CLIENT1|7=2|16=0|10=123|8=FIX.4.4|9=67|35=2|34=552|49=SIMPLE|52=20240613-13:36:14.627|56=CLIENT1|7=2|16=0|10=127|8=FIX.4.4|9=67|35=2|34=553|49=SIMPLE|52=20240613-13:36:14.630|56=CLIENT1|7=2|16=0|10=122|8=FIX.4.4|9=67|35=2|34=554|49=SIMPLE|52=20240613-13:36:14.632|56=CLIENT1|7=2|16=0|10=125|8=FIX.4.4|9=67|35=2|34=555|49=SIMPLE|52=20240613-13:36:14.638|56=CLIENT1|7=2|16=0|10=132|8=FIX.4.4|9=67|35=2|34=556|49=SIMPLE|52=20240613-13:36:14.641|56=CLIENT1|7=2|16=0|10=127|8=FIX.4.4|9=67|35=2|34=557|49=SIMPLE|52=20240613-13:36:14.643|56=CLIENT1|7=2|16=0|10=130|8=FIX.4.4|9=67|35=2|34=558|49=SIMPLE|52=20240613-13:36:14.646|56=CLIENT1|7=2|16=0|10=134|8=FIX.4.4|9=67|35=2|34=559|49=SIMPLE|52=20240613-13:36:14.649|56=CLIENT1|7=2|16=0|10=138|8=FIX.4.4|9=67|35=2|34=560|49=SIMPLE|52=20240613-13:36:14.651|56=CLIENT1|7=2|16=0|10=123|8=FIX.4.4|9=67|35=2|34=561|49=SIMPLE|52=20240613-13:36:14.654|56=CLIENT1|7=2|16=0|10=127|8=FIX.4.4|9=67|35=2|34=562|49=SIMPLE|52=20240613-13:36:14.659|56=CLIENT1|7=2|16=0|10=133|8=FIX.4.4|9=67|35=2|34=563|49=SIMPLE|52=20240613-13:36:14.662|56=CLIENT1|7=2|16=0|10=128|8=FIX.4.4|9=67|35=2|34=564|49=SIMPLE|52=20240613-13:36:14.665|56=CLIENT1|7=2|16=0|10=132|8=FIX.4.4|9=67|35=2|34=565|49=SIMPLE|52=20240613-13:36:14.668|56=CLIENT1|7=2|16=0|10=136|8=FIX.4.4|9=67|35=2|34=566|49=SIMPLE|52=20240613-13:36:14.674|56=CLIENT1|7=2|16=0|10=134|8=FIX.4.4|9=67|35=2|34=567|49=SIMPLE|52=20240613-13:36:14.677|56=CLIENT1|7=2|16=0|10=138|8=FIX.4.4|9=67|35=2|34=568|49=SIMPLE|52=20240613-13:36:14.680|56=CLIENT1|7=2|16=0|10=133|8=FIX.4.4|9=67|35=2|34=569|49=SIMPLE|52=20240613-13:36:14.682|56=CLIENT1|7=2|16=0|10=136|8=FIX.4.4|9=67|35=2|34=570|49=SIMPLE|52=20240613-13:36:14.685|56=CLIENT1|7=2|16=0|10=131|8=FIX.4.4|9=67|35=2|34=571|49=SIMPLE|52=20240613-13:36:14.690|56=CLIENT1|7=2|16=0|10=128|8=FIX.4.4|9=67|35=2|34=572|49=SIMPLE|52=20240613-13:36:14.693|56=CLIENT1|7=2|16=0|10=132|8=FIX.4.4|9=67|35=2|34=573|49=SIMPLE|52=20240613-13:36:14.696|56=CLIENT1|7=2|16=0|10=136|8=FIX.4.4|9=67|35=2|34=574|49=SIMPLE|52=20240613-13:36:14.698|56=CLIENT1|7=2|16=0|10=139|8=FIX.4.4|9=67|35=2|34=575|49=SIMPLE|52=20240613-13:36:14.701|56=CLIENT1|7=2|16=0|10=125|8=FIX.4.4|9=67|35=2|34=576|49=SIMPLE|52=20240613-13:36:14.706|56=CLIENT1|7=2|16=0|10=131|8=FIX.4.4|9=67|35=2|34=577|49=SIMPLE|52=20240613-13:36:14.709|56=CLIENT1|7=2|16=0|10=135|8=FIX.4.4|9=67|35=2|34=578|49=SIMPLE|52=20240613-13:36:14.711|56=CLIENT1|7=2|16=0|10=129|8=FIX.4.4|9=67|35=2|34=579|49=SIMPLE|52=20240613-13:36:14.714|56=CLIENT1|7=2|16=0|10=133|8=FIX.4.4|9=67|35=2|34=580|49=SIMPLE|52=20240613-13:36:14.717|56=CLIENT1|7=2|16=0|10=128|8=FIX.4.4|9=67|35=2|34=581|49=SIMPLE|52=20240613-13:36:14.722|56=CLIENT1|7=2|16=0|10=125|8=FIX.4.4|9=67|35=2|34=582|49=SIMPLE|52=20240613-13:36:14.725|56=CLIENT1|7=2|16=0|10=129|8=FIX.4.4|9=67|35=2|34=583|49=SIMPLE|52=20240613-13:36:14.728|56=CLIENT1|7=2|16=0|10=133|8=FIX.4.4|9=67|35=2|34=584|49=SIMPLE|52=20240613-13:36:14.730|56=CLIENT1|7=2|16=0|10=127|8=FIX.4.4|9=67|35=2|34=585|49=SIMPLE|52=20240613-13:36:14.733|56=CLIENT1|7=2|16=0|10=131|8=FIX.4.4|9=67|35=2|34=586|49=SIMPLE|52=20240613-13:36:14.736|56=CLIENT1|7=2|16=0|10=135|8=FIX.4.4|9=67|35=2|34=587|49=SIMPLE|52=20240613-13:36:14.739|56=CLIENT1|7=2|16=0|10=139|8=FIX.4.4|9=67|35=2|34=588|49=SIMPLE|52=20240613-13:36:14.743|56=CLIENT1|7=2|16=0|10=135|8=FIX.4.4|9=67|35=2|34=589|49=SIMPLE|52=20240613-13:36:14.746|56=CLIENT1|7=2|16=0|10=139|8=FIX.4.4|9=67|35=2|34=590|49=SIMPLE|52=20240613-13:36:14.749|56=CLIENT1|7=2|16=0|10=134|8=FIX.4.4|9=67|35=2|34=591|49=SIMPLE|52=20240613-13:36:14.751|56=CLIENT1|7=2|16=0|10=128|8=FIX.4.4|9=67|35=2|34=592|49=SIMPLE|52=20240613-13:36:14.755|56=CLIENT1|7=2|16=0|10=133|8=FIX.4.4|9=67|35=2|34=593|49=SIMPLE|52=20240613-13:36:14.759|56=CLIENT1|7=2|16=0|10=138|8=FIX.4.4|9=67|35=2|34=594|49=SIMPLE|52=20240613-13:36:14.762|56=CLIENT1|7=2|16=0|10=133|8=FIX.4.4|9=67|35=2|34=595|49=SIMPLE|52=20240613-13:36:14.765|56=CLIENT1|7=2|16=0|10=137|8=FIX.4.4|9=67|35=2|34=596|49=SIMPLE|52=20240613-13:36:14.767|56=CLIENT1|7=2|16=0|10=140|8=FIX.4.4|9=67|35=2|34=597|49=SIMPLE|52=20240613-13:36:14.770|56=CLIENT1|7=2|16=0|10=135|8=FIX.4.4|9=67|35=2|34=598|49=SIMPLE|52=20240613-13:36:14.774|56=CLIENT1|7=2|16=0|10=140|8=FIX.4.4|9=67|35=2|34=599|49=SIMPLE|52=20240613-13:36:14.777|56=CLIENT1|7=2|16=0|10=144|8=FIX.4.4|9=67|35=2|34=600|49=SIMPLE|52=20240613-13:36:14.780|56=CLIENT1|7=2|16=0|10=121|8=FIX.4.4|9=67|35=2|34=601|49=SIMPLE|52=20240613-13:36:14.782|56=CLIENT1|7=2|16=0|10=124|8=FIX.4.4|9=67|35=2|34=602|49=SIMPLE|52=20240613-13:36:14.785|56=CLIENT1|7=2|16=0|10=128|8=FIX.4.4|9=67|35=2|34=603|49=SIMPLE|52=20240613-13:36:14.790|56=CLIENT1|7=2|16=0|10=125|8=FIX.4.4|9=67|35=2|34=604|49=SIMPLE|52=20240613-13:36:14.793|56=CLIENT1|7=2|16=0|10=129|8=FIX.4.4|9=67|35=2|34=605|49=SIMPLE|52=20240613-13:36:14.796|56=CLIENT1|7=2|16=0|10=133|8=FIX.4.4|9=67|35=2|34=606|49=SIMPLE|52=20240613-13:36:14.798|56=CLIENT1|7=2|16=0|10=136|8=FIX.4.4|9=67|35=2|34=607|49=SIMPLE|52=20240613-13:36:14.801|56=CLIENT1|7=2|16=0|10=122|8=FIX.4.4|9=67|35=2|34=608|49=SIMPLE|52=20240613-13:36:14.806|56=CLIENT1|7=2|16=0|10=128|8=FIX.4.4|9=67|35=2|34=609|49=SIMPLE|52=20240613-13:36:14.809|56=CLIENT1|7=2|16=0|10=132|8=FIX.4.4|9=67|35=2|34=610|49=SIMPLE|52=20240613-13:36:14.812|56=CLIENT1|7=2|16=0|10=118|8=FIX.4.4|9=67|35=2|34=611|49=SIMPLE|52=20240613-13:36:14.814|56=CLIENT1|7=2|16=0|10=121|8=FIX.4.4|9=67|35=2|34=612|49=SIMPLE|52=20240613-13:36:14.817|56=CLIENT1|7=2|16=0|10=125|8=FIX.4.4|9=67|35=2|34=613|49=SIMPLE|52=20240613-13:36:14.822|56=CLIENT1|7=2|16=0|10=122|8=FIX.4.4|9=67|35=2|34=614|49=SIMPLE|52=20240613-13:36:14.824|56=CLIENT1|7=2|16=0|10=125|8=FIX.4.4|9=67|35=2|34=615|49=SIMPLE|52=20240613-13:36:14.827|56=CLIENT1|7=2|16=0|10=129|8=FIX.4.4|9=67|35=2|34=616|49=SIMPLE|52=20240613-13:36:14.830|56=CLIENT1|7=2|16=0|10=124|8=FIX.4.4|9=67|35=2|34=617|49=SIMPLE|52=20240613-13:36:14.833|56=CLIENT1|7=2|16=0|10=128|8=FIX.4.4|9=67|35=2|34=618|49=SIMPLE|52=20240613-13:36:14.837|56=CLIENT1|7=2|16=0|10=133|8=FIX.4.4|9=67|35=2|34=619|49=SIMPLE|52=20240613-13:36:14.840|56=CLIENT1|7=2|16=0|10=128|8=FIX.4.4|9=67|35=2|34=620|49=SIMPLE|52=20240613-13:36:14.843|56=CLIENT1|7=2|16=0|10=123|8=FIX.4.4|9=67|35=2|34=621|49=SIMPLE|52=20240613-13:36:14.845|56=CLIENT1|7=2|16=0|10=126|8=FIX.4.4|9=67|35=2|34=622|49=SIMPLE|52=20240613-13:36:14.848|56=CLIENT1|7=2|16=0|10=130|8=FIX.4.4|9=67|35=2|34=623|49=SIMPLE|52=20240613-13:36:14.851|56=CLIENT1|7=2|16=0|10=125|8=FIX.4.4|9=67|35=2|34=624|49=SIMPLE|52=20240613-13:36:14.853|56=CLIENT1|7=2|16=0|10=128|8=FIX.4.4|9=67|35=2|34=625|49=SIMPLE|52=20240613-13:36:14.859|56=CLIENT1|7=2|16=0|10=135|8=FIX.4.4|9=67|35=2|34=626|49=SIMPLE|52=20240613-13:36:14.861|56=CLIENT1|7=2|16=0|10=129|8=FIX.4.4|9=67|35=2|34=627|49=SIMPLE|52=20240613-13:36:14.864|56=CLIENT1|7=2|16=0|10=133|8=FIX.4.4|9=67|35=2|34=628|49=SIMPLE|52=20240613-13:36:14.867|56=CLIENT1|7=2|16=0|10=137|8=FIX.4.4|9=67|35=2|34=629|49=SIMPLE|52=20240613-13:36:14.869|56=CLIENT1|7=2|16=0|10=140|8=FIX.4.4|9=67|35=2|34=630|49=SIMPLE|52=20240613-13:36:14.874|56=CLIENT1|7=2|16=0|10=128|8=FIX.4.4|9=67|35=2|34=631|49=SIMPLE|52=20240613-13:36:14.877|56=CLIENT1|7=2|16=0|10=132|8=FIX.4.4|9=67|35=2|34=632|49=SIMPLE|52=20240613-13:36:14.880|56=CLIENT1|7=2|16=0|10=127|8=FIX.4.4|9=67|35=2|34=633|49=SIMPLE|52=20240613-13:36:14.883|56=CLIENT1|7=2|16=0|10=131|8=FIX.4.4|9=67|35=2|34=634|49=SIMPLE|52=20240613-13:36:14.885|56=CLIENT1|7=2|16=0|10=134|8=FIX.4.4|9=67|35=2|34=635|49=SIMPLE|52=20240613-13:36:14.890|56=CLIENT1|7=2|16=0|10=131|8=FIX.4.4|9=67|35=2|34=636|49=SIMPLE|52=20240613-13:36:14.893|56=CLIENT1|7=2|16=0|10=135|8=FIX.4.4|9=67|35=2|34=637|49=SIMPLE|52=20240613-13:36:14.896|56=CLIENT1|7=2|16=0|10=139|8=FIX.4.4|9=67|35=2|34=638|49=SIMPLE|52=20240613-13:36:14.899|56=CLIENT1|7=2|16=0|10=143|8=FIX.4.4|9=67|35=2|34=639|49=SIMPLE|52=20240613-13:36:14.901|56=CLIENT1|7=2|16=0|10=128|8=FIX.4.4|9=67|35=2|34=640|49=SIMPLE|52=20240613-13:36:14.906|56=CLIENT1|7=2|16=0|10=125|8=FIX.4.4|9=67|35=2|34=641|49=SIMPLE|52=20240613-13:36:14.909|56=CLIENT1|7=2|16=0|10=129|8=FIX.4.4|9=67|35=2|34=642|49=SIMPLE|52=20240613-13:36:14.912|56=CLIENT1|7=2|16=0|10=124|8=FIX.4.4|9=67|35=2|34=643|49=SIMPLE|52=20240613-13:36:14.914|56=CLIENT1|7=2|16=0|10=127|8=FIX.4.4|9=67|35=2|34=644|49=SIMPLE|52=20240613-13:36:14.917|56=CLIENT1|7=2|16=0|10=131|8=FIX.4.4|9=67|35=2|34=645|49=SIMPLE|52=20240613-13:36:14.922|56=CLIENT1|7=2|16=0|10=128|8=FIX.4.4|9=67|35=2|34=646|49=SIMPLE|52=20240613-13:36:14.925|56=CLIENT1|7=2|16=0|10=132|8=FIX.4.4|9=67|35=2|34=647|49=SIMPLE|52=20240613-13:36:14.928|56=CLIENT1|7=2|16=0|10=136|8=FIX.4.4|9=67|35=2|34=648|49=SIMPLE|52=20240613-13:36:14.931|56=CLIENT1|7=2|16=0|10=131|8=FIX.4.4|9=67|35=2|34=649|49=SIMPLE|52=20240613-13:36:14.936|56=CLIENT1|7=2|16=0|10=137|8=FIX.4.4|9=67|35=2|34=650|49=SIMPLE|52=20240613-13:36:14.939|56=CLIENT1|7=2|16=0|10=132|8=FIX.4.4|9=67|35=2|34=651|49=SIMPLE|52=20240613-13:36:14.942|56=CLIENT1|7=2|16=0|10=127|8=FIX.4.4|9=67|35=2|34=652|49=SIMPLE|52=20240613-13:36:14.945|56=CLIENT1|7=2|16=0|10=131|8=FIX.4.4|9=67|35=2|34=653|49=SIMPLE|52=20240613-13:36:14.947|56=CLIENT1|7=2|16=0|10=134|8=FIX.4.4|9=67|35=2|34=654|49=SIMPLE|52=20240613-13:36:14.950|56=CLIENT1|7=2|16=0|10=129|8=FIX.4.4|9=67|35=2|34=655|49=SIMPLE|52=20240613-13:36:14.953|56=CLIENT1|7=2|16=0|10=133|8=FIX.4.4|9=67|35=2|34=656|49=SIMPLE|52=20240613-13:36:14.955|56=CLIENT1|7=2|16=0|10=136|8=FIX.4.4|9=67|35=2|34=657|49=SIMPLE|52=20240613-13:36:14.960|56=CLIENT1|7=2|16=0|10=133|8=FIX.4.4|9=67|35=2|34=658|49=SIMPLE|52=20240613-13:36:14.963|56=CLIENT1|7=2|16=0|10=137|8=FIX.4.4|9=67|35=2|34=659|49=SIMPLE|52=20240613-13:36:14.966|56=CLIENT1|7=2|16=0|10=141|8=FIX.4.4|9=67|35=2|34=660|49=SIMPLE|52=20240613-13:36:14.968|56=CLIENT1|7=2|16=0|10=135|8=FIX.4.4|9=67|35=2|34=661|49=SIMPLE|52=20240613-13:36:14.974|56=CLIENT1|7=2|16=0|10=133|8=FIX.4.4|9=67|35=2|34=662|49=SIMPLE|52=20240613-13:36:14.976|56=CLIENT1|7=2|16=0|10=136|8=FIX.4.4|9=67|35=2|34=663|49=SIMPLE|52=20240613-13:36:14.979|56=CLIENT1|7=2|16=0|10=140|8=FIX.4.4|9=67|35=2|34=664|49=SIMPLE|52=20240613-13:36:14.982|56=CLIENT1|7=2|16=0|10=135|8=FIX.4.4|9=67|35=2|34=665|49=SIMPLE|52=20240613-13:36:14.984|56=CLIENT1|7=2|16=0|10=138|8=FIX.4.4|9=67|35=2|34=666|49=SIMPLE|52=20240613-13:36:14.989|56=CLIENT1|7=2|16=0|10=144|8=FIX.4.4|9=67|35=2|34=667|49=SIMPLE|52=20240613-13:36:14.992|56=CLIENT1|7=2|16=0|10=139|8=FIX.4.4|9=67|35=2|34=668|49=SIMPLE|52=20240613-13:36:14.995|56=CLIENT1|7=2|16=0|10=143|8=FIX.4.4|9=67|35=2|34=669|49=SIMPLE|52=20240613-13:36:14.998|56=CLIENT1|7=2|16=0|10=147|8=FIX.4.4|9=67|35=2|34=670|49=SIMPLE|52=20240613-13:36:15.000|56=CLIENT1|7=2|16=0|10=114|8=FIX.4.4|9=67|35=2|34=671|49=SIMPLE|52=20240613-13:36:15.005|56=CLIENT1|7=2|16=0|10=120|8=FIX.4.4|9=67|35=2|34=672|49=SIMPLE|52=20240613-13:36:15.008|56=CLIENT1|7=2|16=0|10=124|8=FIX.4.4|9=67|35=2|34=673|49=SIMPLE|52=20240613-13:36:15.011|56=CLIENT1|7=2|16=0|10=119|8=FIX.4.4|9=67|35=2|34=674|49=SIMPLE|52=20240613-13:36:15.014|56=CLIENT1|7=2|16=0|10=123|8=FIX.4.4|9=67|35=2|34=675|49=SIMPLE|52=20240613-13:36:15.016|56=CLIENT1|7=2|16=0|10=126|8=FIX.4.4|9=67|35=2|34=676|49=SIMPLE|52=20240613-13:36:15.022|56=CLIENT1|7=2|16=0|10=124|8=FIX.4.4|9=67|35=2|34=677|49=SIMPLE|52=20240613-13:36:15.024|56=CLIENT1|7=2|16=0|10=127|8=FIX.4.4|9=67|35=2|34=678|49=SIMPLE|52=20240613-13:36:15.027|56=CLIENT1|7=2|16=0|10=131|8=FIX.4.4|9=67|35=2|34=679|49=SIMPLE|52=20240613-13:36:15.030|56=CLIENT1|7=2|16=0|10=126|8=FIX.4.4|9=67|35=2|34=680|49=SIMPLE|52=20240613-13:36:15.032|56=CLIENT1|7=2|16=0|10=120|8=FIX.4.4|9=67|35=2|34=681|49=SIMPLE|52=20240613-13:36:15.038|56=CLIENT1|7=2|16=0|10=127|8=FIX.4.4|9=67|35=2|34=682|49=SIMPLE|52=20240613-13:36:15.041|56=CLIENT1|7=2|16=0|10=122|8=FIX.4.4|9=67|35=2|34=683|49=SIMPLE|52=20240613-13:36:15.044|56=CLIENT1|7=2|16=0|10=126|8=FIX.4.4|9=67|35=2|34=684|49=SIMPLE|52=20240613-13:36:15.047|56=CLIENT1|7=2|16=0|10=130|8=FIX.4.4|9=67|35=2|34=685|49=SIMPLE|52=20240613-13:36:15.049|56=CLIENT1|7=2|16=0|10=133|8=FIX.4.4|9=67|35=2|34=686|49=SIMPLE|52=20240613-13:36:15.052|56=CLIENT1|7=2|16=0|10=128|8=FIX.4.4|9=67|35=2|34=687|49=SIMPLE|52=20240613-13:36:15.056|56=CLIENT1|7=2|16=0|10=133|8=FIX.4.4|9=67|35=2|34=688|49=SIMPLE|52=20240613-13:36:15.061|56=CLIENT1|7=2|16=0|10=130|8=FIX.4.4|9=67|35=2|34=689|49=SIMPLE|52=20240613-13:36:15.064|56=CLIENT1|7=2|16=0|10=134|8=FIX.4.4|9=67|35=2|34=690|49=SIMPLE|52=20240613-13:36:15.067|56=CLIENT1|7=2|16=0|10=129|8=FIX.4.4|9=67|35=2|34=691|49=SIMPLE|52=20240613-13:36:15.069|56=CLIENT1|7=2|16=0|10=132|8=FIX.4.4|9=67|35=2|34=692|49=SIMPLE|52=20240613-13:36:15.075|56=CLIENT1|7=2|16=0|10=130|8=FIX.4.4|9=67|35=2|34=693|49=SIMPLE|52=20240613-13:36:15.078|56=CLIENT1|7=2|16=0|10=134|8=FIX.4.4|9=67|35=2|34=694|49=SIMPLE|52=20240613-13:36:15.081|56=CLIENT1|7=2|16=0|10=129|8=FIX.4.4|9=67|35=2|34=695|49=SIMPLE|52=20240613-13:36:15.084|56=CLIENT1|7=2|16=0|10=133|8=FIX.4.4|9=67|35=2|34=696|49=SIMPLE|52=20240613-13:36:15.090|56=CLIENT1|7=2|16=0|10=131|8=FIX.4.4|9=67|35=2|34=697|49=SIMPLE|52=20240613-13:36:15.093|56=CLIENT1|7=2|16=0|10=135|8=FIX.4.4|9=67|35=2|34=698|49=SIMPLE|52=20240613-13:36:15.096|56=CLIENT1|7=2|16=0|10=139|8=FIX.4.4|9=67|35=2|34=699|49=SIMPLE|52=20240613-13:36:15.098|56=CLIENT1|7=2|16=0|10=142|8=FIX.4.4|9=67|35=2|34=700|49=SIMPLE|52=20240613-13:36:15.101|56=CLIENT1|7=2|16=0|10=110|8=FIX.4.4|9=67|35=2|34=701|49=SIMPLE|52=20240613-13:36:15.109|56=CLIENT1|7=2|16=0|10=119|8=FIX.4.4|9=67|35=2|34=702|49=SIMPLE|52=20240613-13:36:15.112|56=CLIENT1|7=2|16=0|10=114|8=FIX.4.4|9=67|35=2|34=703|49=SIMPLE|52=20240613-13:36:15.115|56=CLIENT1|7=2|16=0|10=118|8=FIX.4.4|9=67|35=2|34=704|49=SIMPLE|52=20240613-13:36:15.117|56=CLIENT1|7=2|16=0|10=121|8=FIX.4.4|9=67|35=2|34=705|49=SIMPLE|52=20240613-13:36:15.122|56=CLIENT1|7=2|16=0|10=118|8=FIX.4.4|9=67|35=2|34=706|49=SIMPLE|52=20240613-13:36:15.125|56=CLIENT1|7=2|16=0|10=122|8=FIX.4.4|9=67|35=2|34=707|49=SIMPLE|52=20240613-13:36:15.128|56=CLIENT1|7=2|16=0|10=126|8=FIX.4.4|9=67|35=2|34=708|49=SIMPLE|52=20240613-13:36:15.130|56=CLIENT1|7=2|16=0|10=120|8=FIX.4.4|9=67|35=2|34=709|49=SIMPLE|52=20240613-13:36:15.133|56=CLIENT1|7=2|16=0|10=124|8=FIX.4.4|9=67|35=2|34=710|49=SIMPLE|52=20240613-13:36:15.138|56=CLIENT1|7=2|16=0|10=121|8=FIX.4.4|9=67|35=2|34=711|49=SIMPLE|52=20240613-13:36:15.141|56=CLIENT1|7=2|16=0|10=116|8=FIX.4.4|9=67|35=2|34=712|49=SIMPLE|52=20240613-13:36:15.144|56=CLIENT1|7=2|16=0|10=120|8=FIX.4.4|9=67|35=2|34=713|49=SIMPLE|52=20240613-13:36:15.146|56=CLIENT1|7=2|16=0|10=123|8=FIX.4.4|9=67|35=2|34=714|49=SIMPLE|52=20240613-13:36:15.149|56=CLIENT1|7=2|16=0|10=127|8=FIX.4.4|9=67|35=2|34=715|49=SIMPLE|52=20240613-13:36:15.152|56=CLIENT1|7=2|16=0|10=122|8=FIX.4.4|9=67|35=2|34=716|49=SIMPLE|52=20240613-13:36:15.155|56=CLIENT1|7=2|16=0|10=126|8=FIX.4.4|9=67|35=2|34=717|49=SIMPLE|52=20240613-13:36:15.160|56=CLIENT1|7=2|16=0|10=123|8=FIX.4.4|9=67|35=2|34=718|49=SIMPLE|52=20240613-13:36:15.163|56=CLIENT1|7=2|16=0|10=127|8=FIX.4.4|9=67|35=2|34=719|49=SIMPLE|52=20240613-13:36:15.166|56=CLIENT1|7=2|16=0|10=131|8=FIX.4.4|9=67|35=2|34=720|49=SIMPLE|52=20240613-13:36:15.169|56=CLIENT1|7=2|16=0|10=126|8=FIX.4.4|9=67|35=2|34=721|49=SIMPLE|52=20240613-13:36:15.174|56=CLIENT1|7=2|16=0|10=123|8=FIX.4.4|9=67|35=2|34=722|49=SIMPLE|52=20240613-13:36:15.177|56=CLIENT1|7=2|16=0|10=127|8=FIX.4.4|9=67|35=2|34=723|49=SIMPLE|52=20240613-13:36:15.180|56=CLIENT1|7=2|16=0|10=122|8=FIX.4.4|9=67|35=2|34=724|49=SIMPLE|52=20240613-13:36:15.183|56=CLIENT1|7=2|16=0|10=126|8=FIX.4.4|9=67|35=2|34=725|49=SIMPLE|52=20240613-13:36:15.185|56=CLIENT1|7=2|16=0|10=129|8=FIX.4.4|9=67|35=2|34=726|49=SIMPLE|52=20240613-13:36:15.191|56=CLIENT1|7=2|16=0|10=127|8=FIX.4.4|9=67|35=2|34=727|49=SIMPLE|52=20240613-13:36:15.193|56=CLIENT1|7=2|16=0|10=130|8=FIX.4.4|9=67|35=2|34=728|49=SIMPLE|52=20240613-13:36:15.196|56=CLIENT1|7=2|16=0|10=134|8=FIX.4.4|9=67|35=2|34=729|49=SIMPLE|52=20240613-13:36:15.199|56=CLIENT1|7=2|16=0|10=138|8=FIX.4.4|9=67|35=2|34=730|49=SIMPLE|52=20240613-13:36:15.201|56=CLIENT1|7=2|16=0|10=114|8=FIX.4.4|9=67|35=2|34=731|49=SIMPLE|52=20240613-13:36:15.207|56=CLIENT1|7=2|16=0|10=121|8=FIX.4.4|9=67|35=2|34=732|49=SIMPLE|52=20240613-13:36:15.210|56=CLIENT1|7=2|16=0|10=116|8=FIX.4.4|9=67|35=2|34=733|49=SIMPLE|52=20240613-13:36:15.212|56=CLIENT1|7=2|16=0|10=119|8=FIX.4.4|9=67|35=2|34=734|49=SIMPLE|52=20240613-13:36:15.215|56=CLIENT1|7=2|16=0|10=123|8=FIX.4.4|9=67|35=2|34=735|49=SIMPLE|52=20240613-13:36:15.218|56=CLIENT1|7=2|16=0|10=127|8=FIX.4.4|9=67|35=2|34=736|49=SIMPLE|52=20240613-13:36:15.223|56=CLIENT1|7=2|16=0|10=124|8=FIX.4.4|9=67|35=2|34=737|49=SIMPLE|52=20240613-13:36:15.226|56=CLIENT1|7=2|16=0|10=128|8=FIX.4.4|9=67|35=2|34=738|49=SIMPLE|52=20240613-13:36:15.228|56=CLIENT1|7=2|16=0|10=131|8=FIX.4.4|9=67|35=2|34=739|49=SIMPLE|52=20240613-13:36:15.231|56=CLIENT1|7=2|16=0|10=126|8=FIX.4.4|9=67|35=2|34=740|49=SIMPLE|52=20240613-13:36:15.234|56=CLIENT1|7=2|16=0|10=121|8=FIX.4.4|9=67|35=2|34=741|49=SIMPLE|52=20240613-13:36:15.239|56=CLIENT1|7=2|16=0|10=127|8=FIX.4.4|9=67|35=2|34=742|49=SIMPLE|52=20240613-13:36:15.242|56=CLIENT1|7=2|16=0|10=122|8=FIX.4.4|9=67|35=2|34=743|49=SIMPLE|52=20240613-13:36:15.245|56=CLIENT1|7=2|16=0|10=126|8=FIX.4.4|9=67|35=2|34=744|49=SIMPLE|52=20240613-13:36:15.247|56=CLIENT1|7=2|16=0|10=129|8=FIX.4.4|9=67|35=2|34=745|49=SIMPLE|52=20240613-13:36:15.250|56=CLIENT1|7=2|16=0|10=124|8=FIX.4.4|9=67|35=2|34=746|49=SIMPLE|52=20240613-13:36:15.253|56=CLIENT1|7=2|16=0|10=128|8=FIX.4.4|9=67|35=2|34=747|49=SIMPLE|52=20240613-13:36:15.258|56=CLIENT1|7=2|16=0|10=134|8=FIX.4.4|9=67|35=2|34=748|49=SIMPLE|52=20240613-13:36:15.262|56=CLIENT1|7=2|16=0|10=130|8=FIX.4.4|9=67|35=2|34=749|49=SIMPLE|52=20240613-13:36:15.264|56=CLIENT1|7=2|16=0|10=133|8=FIX.4.4|9=67|35=2|34=750|49=SIMPLE|52=20240613-13:36:15.267|56=CLIENT1|7=2|16=0|10=128|8=FIX.4.4|9=67|35=2|34=751|49=SIMPLE|52=20240613-13:36:15.270|56=CLIENT1|7=2|16=0|10=123|8=FIX.4.4|9=67|35=2|34=752|49=SIMPLE|52=20240613-13:36:15.275|56=CLIENT1|7=2|16=0|10=129|8=FIX.4.4|9=67|35=2|34=753|49=SIMPLE|52=20240613-13:36:15.278|56=CLIENT1|7=2|16=0|10=133|8=FIX.4.4|9=67|35=2|34=754|49=SIMPLE|52=20240613-13:36:15.281|56=CLIENT1|7=2|16=0|10=128|8=FIX.4.4|9=67|35=2|34=755|49=SIMPLE|52=20240613-13:36:15.284|56=CLIENT1|7=2|16=0|10=132|8=FIX.4.4|9=67|35=2|34=756|49=SIMPLE|52=20240613-13:36:15.287|56=CLIENT1|7=2|16=0|10=136|8=FIX.4.4|9=67|35=2|34=757|49=SIMPLE|52=20240613-13:36:15.292|56=CLIENT1|7=2|16=0|10=133|8=FIX.4.4|9=67|35=2|34=758|49=SIMPLE|52=20240613-13:36:15.294|56=CLIENT1|7=2|16=0|10=136|8=FIX.4.4|9=67|35=2|34=759|49=SIMPLE|52=20240613-13:36:15.297|56=CLIENT1|7=2|16=0|10=140|8=FIX.4.4|9=67|35=2|34=760|49=SIMPLE|52=20240613-13:36:15.300|56=CLIENT1|7=2|16=0|10=117|8=FIX.4.4|9=67|35=2|34=761|49=SIMPLE|52=20240613-13:36:15.303|56=CLIENT1|7=2|16=0|10=121|8=FIX.4.4|9=67|35=2|34=762|49=SIMPLE|52=20240613-13:36:15.308|56=CLIENT1|7=2|16=0|10=127|8=FIX.4.4|9=67|35=2|34=763|49=SIMPLE|52=20240613-13:36:15.311|56=CLIENT1|7=2|16=0|10=122|8=FIX.4.4|9=67|35=2|34=764|49=SIMPLE|52=20240613-13:36:15.313|56=CLIENT1|7=2|16=0|10=125|8=FIX.4.4|9=67|35=2|34=765|49=SIMPLE|52=20240613-13:36:15.316|56=CLIENT1|7=2|16=0|10=129|8=FIX.4.4|9=67|35=2|34=766|49=SIMPLE|52=20240613-13:36:15.321|56=CLIENT1|7=2|16=0|10=126|8=FIX.4.4|9=67|35=2|34=767|49=SIMPLE|52=20240613-13:36:15.324|56=CLIENT1|7=2|16=0|10=130|8=FIX.4.4|9=67|35=2|34=768|49=SIMPLE|52=20240613-13:36:15.327|56=CLIENT1|7=2|16=0|10=134|8=FIX.4.4|9=67|35=2|34=769|49=SIMPLE|52=20240613-13:36:15.329|56=CLIENT1|7=2|16=0|10=137|8=FIX.4.4|9=67|35=2|34=770|49=SIMPLE|52=20240613-13:36:15.332|56=CLIENT1|7=2|16=0|10=123|8=FIX.4.4|9=67|35=2|34=771|49=SIMPLE|52=20240613-13:36:15.337|56=CLIENT1|7=2|16=0|10=129|8=FIX.4.4|9=67|35=2|34=772|49=SIMPLE|52=20240613-13:36:15.340|56=CLIENT1|7=2|16=0|10=124|8=FIX.4.4|9=67|35=2|34=773|49=SIMPLE|52=20240613-13:36:15.343|56=CLIENT1|7=2|16=0|10=128|8=FIX.4.4|9=67|35=2|34=774|49=SIMPLE|52=20240613-13:36:15.345|56=CLIENT1|7=2|16=0|10=131|8=FIX.4.4|9=67|35=2|34=775|49=SIMPLE|52=20240613-13:36:15.348|56=CLIENT1|7=2|16=0|10=135|8=FIX.4.4|9=67|35=2|34=776|49=SIMPLE|52=20240613-13:36:15.351|56=CLIENT1|7=2|16=0|10=130|8=FIX.4.4|9=67|35=2|34=777|49=SIMPLE|52=20240613-13:36:15.354|56=CLIENT1|7=2|16=0|10=134|8=FIX.4.4|9=67|35=2|34=778|49=SIMPLE|52=20240613-13:36:15.359|56=CLIENT1|7=2|16=0|10=140|8=FIX.4.4|9=67|35=2|34=779|49=SIMPLE|52=20240613-13:36:15.362|56=CLIENT1|7=2|16=0|10=135|8=FIX.4.4|9=67|35=2|34=780|49=SIMPLE|52=20240613-13:36:15.365|56=CLIENT1|7=2|16=0|10=130|8=FIX.4.4|9=67|35=2|34=781|49=SIMPLE|52=20240613-13:36:15.367|56=CLIENT1|7=2|16=0|10=133|8=FIX.4.4|9=67|35=2|34=782|49=SIMPLE|52=20240613-13:36:15.370|56=CLIENT1|7=2|16=0|10=128|8=FIX.4.4|9=67|35=2|34=783|49=SIMPLE|52=20240613-13:36:15.375|56=CLIENT1|7=2|16=0|10=134|8=FIX.4.4|9=67|35=2|34=784|49=SIMPLE|52=20240613-13:36:15.378|56=CLIENT1|7=2|16=0|10=138|8=FIX.4.4|9=67|35=2|34=785|49=SIMPLE|52=20240613-13:36:15.381|56=CLIENT1|7=2|16=0|10=133|8=FIX.4.4|9=67|35=2|34=786|49=SIMPLE|52=20240613-13:36:15.383|56=CLIENT1|7=2|16=0|10=136|8=FIX.4.4|9=67|35=2|34=787|49=SIMPLE|52=20240613-13:36:15.386|56=CLIENT1|7=2|16=0|10=140|8=FIX.4.4|9=67|35=2|34=788|49=SIMPLE|52=20240613-13:36:15.392|56=CLIENT1|7=2|16=0|10=138|8=FIX.4.4|9=67|35=2|34=789|49=SIMPLE|52=20240613-13:36:15.394|56=CLIENT1|7=2|16=0|10=141|8=FIX.4.4|9=67|35=2|34=790|49=SIMPLE|52=20240613-13:36:15.397|56=CLIENT1|7=2|16=0|10=136|8=FIX.4.4|9=67|35=2|34=791|49=SIMPLE|52=20240613-13:36:15.400|56=CLIENT1|7=2|16=0|10=122|8=FIX.4.4|9=67|35=2|34=792|49=SIMPLE|52=20240613-13:36:15.402|56=CLIENT1|7=2|16=0|10=125|8=FIX.4.4|9=67|35=2|34=793|49=SIMPLE|52=20240613-13:36:15.407|56=CLIENT1|7=2|16=0|10=131|8=FIX.4.4|9=67|35=2|34=794|49=SIMPLE|52=20240613-13:36:15.410|56=CLIENT1|7=2|16=0|10=126|8=FIX.4.4|9=67|35=2|34=795|49=SIMPLE|52=20240613-13:36:15.412|56=CLIENT1|7=2|16=0|10=129|8=FIX.4.4|9=67|35=2|34=796|49=SIMPLE|52=20240613-13:36:15.415|56=CLIENT1|7=2|16=0|10=133|8=FIX.4.4|9=67|35=2|34=797|49=SIMPLE|52=20240613-13:36:15.418|56=CLIENT1|7=2|16=0|10=137|8=FIX.4.4|9=67|35=2|34=798|49=SIMPLE|52=20240613-13:36:15.423|56=CLIENT1|7=2|16=0|10=134|8=FIX.4.4|9=67|35=2|34=799|49=SIMPLE|52=20240613-13:36:15.426|56=CLIENT1|7=2|16=0|10=138|8=FIX.4.4|9=67|35=2|34=800|49=SIMPLE|52=20240613-13:36:15.429|56=CLIENT1|7=2|16=0|10=124|8=FIX.4.4|9=67|35=2|34=801|49=SIMPLE|52=20240613-13:36:15.431|56=CLIENT1|7=2|16=0|10=118|8=FIX.4.4|9=67|35=2|34=802|49=SIMPLE|52=20240613-13:36:15.434|56=CLIENT1|7=2|16=0|10=122|8=FIX.4.4|9=67|35=2|34=803|49=SIMPLE|52=20240613-13:36:15.440|56=CLIENT1|7=2|16=0|10=120|8=FIX.4.4|9=67|35=2|34=804|49=SIMPLE|52=20240613-13:36:15.443|56=CLIENT1|7=2|16=0|10=124|8=FIX.4.4|9=67|35=2|34=805|49=SIMPLE|52=20240613-13:36:15.446|56=CLIENT1|7=2|16=0|10=128|8=FIX.4.4|9=67|35=2|34=806|49=SIMPLE|52=20240613-13:36:15.448|56=CLIENT1|7=2|16=0|10=131|8=FIX.4.4|9=67|35=2|34=807|49=SIMPLE|52=20240613-13:36:15.451|56=CLIENT1|7=2|16=0|10=126|8=FIX.4.4|9=67|35=2|34=808|49=SIMPLE|52=20240613-13:36:15.454|56=CLIENT1|7=2|16=0|10=130|8=FIX.4.4|9=67|35=2|34=809|49=SIMPLE|52=20240613-13:36:15.459|56=CLIENT1|7=2|16=0|10=136|8=FIX.4.4|9=67|35=2|34=810|49=SIMPLE|52=20240613-13:36:15.462|56=CLIENT1|7=2|16=0|10=122|8=FIX.4.4|9=67|35=2|34=811|49=SIMPLE|52=20240613-13:36:15.465|56=CLIENT1|7=2|16=0|10=126|8=FIX.4.4|9=67|35=2|34=812|49=SIMPLE|52=20240613-13:36:15.467|56=CLIENT1|7=2|16=0|10=129|8=FIX.4.4|9=67|35=2|34=813|49=SIMPLE|52=20240613-13:36:15.470|56=CLIENT1|7=2|16=0|10=124|8=FIX.4.4|9=67|35=2|34=814|49=SIMPLE|52=20240613-13:36:15.476|56=CLIENT1|7=2|16=0|10=131|8=FIX.4.4|9=67|35=2|34=815|49=SIMPLE|52=20240613-13:36:15.479|56=CLIENT1|7=2|16=0|10=135|8=FIX.4.4|9=67|35=2|34=816|49=SIMPLE|52=20240613-13:36:15.482|56=CLIENT1|7=2|16=0|10=130|8=FIX.4.4|9=67|35=2|34=817|49=SIMPLE|52=20240613-13:36:15.484|56=CLIENT1|7=2|16=0|10=133|8=FIX.4.4|9=67|35=2|34=818|49=SIMPLE|52=20240613-13:36:15.487|56=CLIENT1|7=2|16=0|10=137|8=FIX.4.4|9=67|35=2|34=819|49=SIMPLE|52=20240613-13:36:15.492|56=CLIENT1|7=2|16=0|10=134|8=FIX.4.4|9=67|35=2|34=820|49=SIMPLE|52=20240613-13:36:15.495|56=CLIENT1|7=2|16=0|10=129|8=FIX.4.4|9=67|35=2|34=821|49=SIMPLE|52=20240613-13:36:15.497|56=CLIENT1|7=2|16=0|10=132|8=FIX.4.4|9=67|35=2|34=822|49=SIMPLE|52=20240613-13:36:15.500|56=CLIENT1|7=2|16=0|10=118|8=FIX.4.4|9=67|35=2|34=823|49=SIMPLE|52=20240613-13:36:15.503|56=CLIENT1|7=2|16=0|10=122|8=FIX.4.4|9=67|35=2|34=824|49=SIMPLE|52=20240613-13:36:15.507|56=CLIENT1|7=2|16=0|10=127|8=FIX.4.4|9=67|35=2|34=825|49=SIMPLE|52=20240613-13:36:15.511|56=CLIENT1|7=2|16=0|10=123|8=FIX.4.4|9=67|35=2|34=826|49=SIMPLE|52=20240613-13:36:15.513|56=CLIENT1|7=2|16=0|10=126|8=FIX.4.4|9=67|35=2|34=827|49=SIMPLE|52=20240613-13:36:15.516|56=CLIENT1|7=2|16=0|10=130|8=FIX.4.4|9=67|35=2|34=828|49=SIMPLE|52=20240613-13:36:15.519|56=CLIENT1|7=2|16=0|10=134|8=FIX.4.4|9=67|35=2|34=829|49=SIMPLE|52=20240613-13:36:15.523|56=CLIENT1|7=2|16=0|10=130|8=FIX.4.4|9=67|35=2|34=830|49=SIMPLE|52=20240613-13:36:15.526|56=CLIENT1|7=2|16=0|10=125|8=FIX.4.4|9=67|35=2|34=831|49=SIMPLE|52=20240613-13:36:15.529|56=CLIENT1|7=2|16=0|10=129|8=FIX.4.4|9=67|35=2|34=832|49=SIMPLE|52=20240613-13:36:15.532|56=CLIENT1|7=2|16=0|10=124|8=FIX.4.4|9=67|35=2|34=833|49=SIMPLE|52=20240613-13:36:15.534|56=CLIENT1|7=2|16=0|10=127|8=FIX.4.4|9=67|35=2|34=834|49=SIMPLE|52=20240613-13:36:15.537|56=CLIENT1|7=2|16=0|10=131|8=FIX.4.4|9=67|35=2|34=835|49=SIMPLE|52=20240613-13:36:15.542|56=CLIENT1|7=2|16=0|10=128|8=FIX.4.4|9=67|35=2|34=836|49=SIMPLE|52=20240613-13:36:15.545|56=CLIENT1|7=2|16=0|10=132|8=FIX.4.4|9=67|35=2|34=837|49=SIMPLE|52=20240613-13:36:15.548|56=CLIENT1|7=2|16=0|10=136|8=FIX.4.4|9=67|35=2|34=838|49=SIMPLE|52=20240613-13:36:15.550|56=CLIENT1|7=2|16=0|10=130|8=FIX.4.4|9=67|35=2|34=839|49=SIMPLE|52=20240613-13:36:15.553|56=CLIENT1|7=2|16=0|10=134|8=FIX.4.4|9=67|35=2|34=840|49=SIMPLE|52=20240613-13:36:15.556|56=CLIENT1|7=2|16=0|10=129|8=FIX.4.4|9=67|35=2|34=841|49=SIMPLE|52=20240613-13:36:15.561|56=CLIENT1|7=2|16=0|10=126|8=FIX.4.4|9=67|35=2|34=842|49=SIMPLE|52=20240613-13:36:15.564|56=CLIENT1|7=2|16=0|10=130|8=FIX.4.4|9=67|35=2|34=843|49=SIMPLE|52=20240613-13:36:15.567|56=CLIENT1|7=2|16=0|10=134|8=FIX.4.4|9=67|35=2|34=844|49=SIMPLE|52=20240613-13:36:15.570|56=CLIENT1|7=2|16=0|10=129|8=FIX.4.4|9=67|35=2|34=845|49=SIMPLE|52=20240613-13:36:15.575|56=CLIENT1|7=2|16=0|10=135|8=FIX.4.4|9=67|35=2|34=846|49=SIMPLE|52=20240613-13:36:15.578|56=CLIENT1|7=2|16=0|10=139|8=FIX.4.4|9=67|35=2|34=847|49=SIMPLE|52=20240613-13:36:15.581|56=CLIENT1|7=2|16=0|10=134|8=FIX.4.4|9=67|35=2|34=848|49=SIMPLE|52=20240613-13:36:15.584|56=CLIENT1|7=2|16=0|10=138|8=FIX.4.4|9=67|35=2|34=849|49=SIMPLE|52=20240613-13:36:15.586|56=CLIENT1|7=2|16=0|10=141|8=FIX.4.4|9=67|35=2|34=850|49=SIMPLE|52=20240613-13:36:15.592|56=CLIENT1|7=2|16=0|10=130|8=FIX.4.4|9=67|35=2|34=851|49=SIMPLE|52=20240613-13:36:15.594|56=CLIENT1|7=2|16=0|10=133|8=FIX.4.4|9=67|35=2|34=852|49=SIMPLE|52=20240613-13:36:15.597|56=CLIENT1|7=2|16=0|10=137|8=FIX.4.4|9=67|35=2|34=853|49=SIMPLE|52=20240613-13:36:15.599|56=CLIENT1|7=2|16=0|10=140|8=FIX.4.4|9=67|35=2|34=854|49=SIMPLE|52=20240613-13:36:15.602|56=CLIENT1|7=2|16=0|10=126|8=FIX.4.4|9=67|35=2|34=855|49=SIMPLE|52=20240613-13:36:15.607|56=CLIENT1|7=2|16=0|10=132|8=FIX.4.4|9=67|35=2|34=856|49=SIMPLE|52=20240613-13:36:15.610|56=CLIENT1|7=2|16=0|10=127|8=FIX.4.4|9=67|35=2|34=857|49=SIMPLE|52=20240613-13:36:15.612|56=CLIENT1|7=2|16=0|10=130|8=FIX.4.4|9=67|35=2|34=858|49=SIMPLE|52=20240613-13:36:15.615|56=CLIENT1|7=2|16=0|10=134|8=FIX.4.4|9=67|35=2|34=859|49=SIMPLE|52=20240613-13:36:15.618|56=CLIENT1|7=2|16=0|10=138|8=FIX.4.4|9=67|35=2|34=860|49=SIMPLE|52=20240613-13:36:15.623|56=CLIENT1|7=2|16=0|10=126|8=FIX.4.4|9=67|35=2|34=861|49=SIMPLE|52=20240613-13:36:15.625|56=CLIENT1|7=2|16=0|10=129|8=FIX.4.4|9=67|35=2|34=862|49=SIMPLE|52=20240613-13:36:15.628|56=CLIENT1|7=2|16=0|10=133|8=FIX.4.4|9=67|35=2|34=863|49=SIMPLE|52=20240613-13:36:15.630|56=CLIENT1|7=2|16=0|10=127|8=FIX.4.4|9=67|35=2|34=864|49=SIMPLE|52=20240613-13:36:15.633|56=CLIENT1|7=2|16=0|10=131|8=FIX.4.4|9=67|35=2|34=865|49=SIMPLE|52=20240613-13:36:15.638|56=CLIENT1|7=2|16=0|10=137|8=FIX.4.4|9=67|35=2|34=866|49=SIMPLE|52=20240613-13:36:15.641|56=CLIENT1|7=2|16=0|10=132|8=FIX.4.4|9=67|35=2|34=867|49=SIMPLE|52=20240613-13:36:15.644|56=CLIENT1|7=2|16=0|10=136|8=FIX.4.4|9=67|35=2|34=868|49=SIMPLE|52=20240613-13:36:15.646|56=CLIENT1|7=2|16=0|10=139|8=FIX.4.4|9=67|35=2|34=869|49=SIMPLE|52=20240613-13:36:15.649|56=CLIENT1|7=2|16=0|10=143|8=FIX.4.4|9=67|35=2|34=870|49=SIMPLE|52=20240613-13:36:15.652|56=CLIENT1|7=2|16=0|10=129|8=FIX.4.4|9=67|35=2|34=871|49=SIMPLE|52=20240613-13:36:15.655|56=CLIENT1|7=2|16=0|10=133|8=FIX.4.4|9=67|35=2|34=872|49=SIMPLE|52=20240613-13:36:15.660|56=CLIENT1|7=2|16=0|10=130|8=FIX.4.4|9=67|35=2|34=873|49=SIMPLE|52=20240613-13:36:15.663|56=CLIENT1|7=2|16=0|10=134|8=FIX.4.4|9=67|35=2|34=874|49=SIMPLE|52=20240613-13:36:15.666|56=CLIENT1|7=2|16=0|10=138|8=FIX.4.4|9=67|35=2|34=875|49=SIMPLE|52=20240613-13:36:15.670|56=CLIENT1|7=2|16=0|10=134|8=FIX.4.4|9=67|35=2|34=876|49=SIMPLE|52=20240613-13:36:15.675|56=CLIENT1|7=2|16=0|10=140|8=FIX.4.4|9=67|35=2|34=877|49=SIMPLE|52=20240613-13:36:15.678|56=CLIENT1|7=2|16=0|10=144|8=FIX.4.4|9=67|35=2|34=878|49=SIMPLE|52=20240613-13:36:15.681|56=CLIENT1|7=2|16=0|10=139|8=FIX.4.4|9=67|35=2|34=879|49=SIMPLE|52=20240613-13:36:15.683|56=CLIENT1|7=2|16=0|10=142|8=FIX.4.4|9=67|35=2|34=880|49=SIMPLE|52=20240613-13:36:15.686|56=CLIENT1|7=2|16=0|10=137|8=FIX.4.4|9=67|35=2|34=881|49=SIMPLE|52=20240613-13:36:15.692|56=CLIENT1|7=2|16=0|10=135|8=FIX.4.4|9=67|35=2|34=882|49=SIMPLE|52=20240613-13:36:15.694|56=CLIENT1|7=2|16=0|10=138|8=FIX.4.4|9=67|35=2|34=883|49=SIMPLE|52=20240613-13:36:15.697|56=CLIENT1|7=2|16=0|10=142|8=FIX.4.4|9=67|35=2|34=884|49=SIMPLE|52=20240613-13:36:15.700|56=CLIENT1|7=2|16=0|10=128|8=FIX.4.4|9=67|35=2|34=885|49=SIMPLE|52=20240613-13:36:15.703|56=CLIENT1|7=2|16=0|10=132|8=FIX.4.4|9=67|35=2|34=886|49=SIMPLE|52=20240613-13:36:15.708|56=CLIENT1|7=2|16=0|10=138|8=FIX.4.4|9=67|35=2|34=887|49=SIMPLE|52=20240613-13:36:15.711|56=CLIENT1|7=2|16=0|10=133|8=FIX.4.4|9=67|35=2|34=888|49=SIMPLE|52=20240613-13:36:15.713|56=CLIENT1|7=2|16=0|10=136|8=FIX.4.4|9=67|35=2|34=889|49=SIMPLE|52=20240613-13:36:15.716|56=CLIENT1|7=2|16=0|10=140|8=FIX.4.4|9=67|35=2|34=890|49=SIMPLE|52=20240613-13:36:15.719|56=CLIENT1|7=2|16=0|10=135|8=FIX.4.4|9=67|35=2|34=891|49=SIMPLE|52=20240613-13:36:15.723|56=CLIENT1|7=2|16=0|10=131|8=FIX.4.4|9=67|35=2|34=892|49=SIMPLE|52=20240613-13:36:15.726|56=CLIENT1|7=2|16=0|10=135|8=FIX.4.4|9=67|35=2|34=893|49=SIMPLE|52=20240613-13:36:15.729|56=CLIENT1|7=2|16=0|10=139|8=FIX.4.4|9=67|35=2|34=894|49=SIMPLE|52=20240613-13:36:15.732|56=CLIENT1|7=2|16=0|10=134|8=FIX.4.4|9=67|35=2|34=895|49=SIMPLE|52=20240613-13:36:15.734|56=CLIENT1|7=2|16=0|10=137|8=FIX.4.4|9=67|35=2|34=896|49=SIMPLE|52=20240613-13:36:15.739|56=CLIENT1|7=2|16=0|10=143|8=FIX.4.4|9=67|35=2|34=897|49=SIMPLE|52=20240613-13:36:15.742|56=CLIENT1|7=2|16=0|10=138|8=FIX.4.4|9=67|35=2|34=898|49=SIMPLE|52=20240613-13:36:15.745|56=CLIENT1|7=2|16=0|10=142|8=FIX.4.4|9=67|35=2|34=899|49=SIMPLE|52=20240613-13:36:15.747|56=CLIENT1|7=2|16=0|10=145|8=FIX.4.4|9=67|35=2|34=900|49=SIMPLE|52=20240613-13:36:15.750|56=CLIENT1|7=2|16=0|10=122|8=FIX.4.4|9=67|35=2|34=901|49=SIMPLE|52=20240613-13:36:15.753|56=CLIENT1|7=2|16=0|10=126|8=FIX.4.4|9=67|35=2|34=902|49=SIMPLE|52=20240613-13:36:15.756|56=CLIENT1|7=2|16=0|10=130|8=FIX.4.4|9=67|35=2|34=903|49=SIMPLE|52=20240613-13:36:15.761|56=CLIENT1|7=2|16=0|10=127|8=FIX.4.4|9=67|35=2|34=904|49=SIMPLE|52=20240613-13:36:15.764|56=CLIENT1|7=2|16=0|10=131|8=FIX.4.4|9=67|35=2|34=905|49=SIMPLE|52=20240613-13:36:15.767|56=CLIENT1|7=2|16=0|10=135|8=FIX.4.4|9=67|35=2|34=906|49=SIMPLE|52=20240613-13:36:15.770|56=CLIENT1|7=2|16=0|10=130|8=FIX.4.4|9=67|35=2|34=907|49=SIMPLE|52=20240613-13:36:15.776|56=CLIENT1|7=2|16=0|10=137|8=FIX.4.4|9=67|35=2|34=908|49=SIMPLE|52=20240613-13:36:15.779|56=CLIENT1|7=2|16=0|10=141|8=FIX.4.4|9=67|35=2|34=909|49=SIMPLE|52=20240613-13:36:15.782|56=CLIENT1|7=2|16=0|10=136|8=FIX.4.4|9=67|35=2|34=910|49=SIMPLE|52=20240613-13:36:15.785|56=CLIENT1|7=2|16=0|10=131|8=FIX.4.4|9=67|35=2|34=911|49=SIMPLE|52=20240613-13:36:15.788|56=CLIENT1|7=2|16=0|10=135|8=FIX.4.4|9=67|35=2|34=912|49=SIMPLE|52=20240613-13:36:15.792|56=CLIENT1|7=2|16=0|10=131|8=FIX.4.4|9=67|35=2|34=913|49=SIMPLE|52=20240613-13:36:15.795|56=CLIENT1|7=2|16=0|10=135|8=FIX.4.4|9=67|35=2|34=914|49=SIMPLE|52=20240613-13:36:15.798|56=CLIENT1|7=2|16=0|10=139|8=FIX.4.4|9=67|35=2|34=915|49=SIMPLE|52=20240613-13:36:15.800|56=CLIENT1|7=2|16=0|10=124|8=FIX.4.4|9=67|35=2|34=916|49=SIMPLE|52=20240613-13:36:15.803|56=CLIENT1|7=2|16=0|10=128|8=FIX.4.4|9=67|35=2|34=917|49=SIMPLE|52=20240613-13:36:15.808|56=CLIENT1|7=2|16=0|10=134|8=FIX.4.4|9=67|35=2|34=918|49=SIMPLE|52=20240613-13:36:15.810|56=CLIENT1|7=2|16=0|10=128|8=FIX.4.4|9=67|35=2|34=919|49=SIMPLE|52=20240613-13:36:15.813|56=CLIENT1|7=2|16=0|10=132|8=FIX.4.4|9=67|35=2|34=920|49=SIMPLE|52=20240613-13:36:15.816|56=CLIENT1|7=2|16=0|10=127|8=FIX.4.4|9=67|35=2|34=921|49=SIMPLE|52=20240613-13:36:15.818|56=CLIENT1|7=2|16=0|10=130|8=FIX.4.4|9=67|35=2|34=922|49=SIMPLE|52=20240613-13:36:15.823|56=CLIENT1|7=2|16=0|10=127|8=FIX.4.4|9=67|35=2|34=923|49=SIMPLE|52=20240613-13:36:15.826|56=CLIENT1|7=2|16=0|10=131|8=FIX.4.4|9=67|35=2|34=924|49=SIMPLE|52=20240613-13:36:15.829|56=CLIENT1|7=2|16=0|10=135|8=FIX.4.4|9=67|35=2|34=925|49=SIMPLE|52=20240613-13:36:15.831|56=CLIENT1|7=2|16=0|10=129|8=FIX.4.4|9=67|35=2|34=926|49=SIMPLE|52=20240613-13:36:15.834|56=CLIENT1|7=2|16=0|10=133|8=FIX.4.4|9=67|35=2|34=927|49=SIMPLE|52=20240613-13:36:15.839|56=CLIENT1|7=2|16=0|10=139|8=FIX.4.4|9=67|35=2|34=928|49=SIMPLE|52=20240613-13:36:15.842|56=CLIENT1|7=2|16=0|10=134|8=FIX.4.4|9=67|35=2|34=929|49=SIMPLE|52=20240613-13:36:15.844|56=CLIENT1|7=2|16=0|10=137|8=FIX.4.4|9=67|35=2|34=930|49=SIMPLE|52=20240613-13:36:15.847|56=CLIENT1|7=2|16=0|10=132|8=FIX.4.4|9=67|35=2|34=931|49=SIMPLE|52=20240613-13:36:15.849|56=CLIENT1|7=2|16=0|10=135|8=FIX.4.4|9=67|35=2|34=932|49=SIMPLE|52=20240613-13:36:15.852|56=CLIENT1|7=2|16=0|10=130|8=FIX.4.4|9=67|35=2|34=933|49=SIMPLE|52=20240613-13:36:15.855|56=CLIENT1|7=2|16=0|10=134|8=FIX.4.4|9=67|35=2|34=934|49=SIMPLE|52=20240613-13:36:15.860|56=CLIENT1|7=2|16=0|10=131|8=FIX.4.4|9=67|35=2|34=935|49=SIMPLE|52=20240613-13:36:15.863|56=CLIENT1|7=2|16=0|10=135|8=FIX.4.4|9=67|35=2|34=936|49=SIMPLE|52=20240613-13:36:15.865|56=CLIENT1|7=2|16=0|10=138|8=FIX.4.4|9=67|35=2|34=937|49=SIMPLE|52=20240613-13:36:15.868|56=CLIENT1|7=2|16=0|10=142|8=FIX.4.4|9=67|35=2|34=938|49=SIMPLE|52=20240613-13:36:15.871|56=CLIENT1|7=2|16=0|10=137|8=FIX.4.4|9=67|35=2|34=939|49=SIMPLE|52=20240613-13:36:15.876|56=CLIENT1|7=2|16=0|10=143|8=FIX.4.4|9=67|35=2|34=940|49=SIMPLE|52=20240613-13:36:15.879|56=CLIENT1|7=2|16=0|10=138|8=FIX.4.4|9=67|35=2|34=941|49=SIMPLE|52=20240613-13:36:15.882|56=CLIENT1|7=2|16=0|10=133|8=FIX.4.4|9=67|35=2|34=942|49=SIMPLE|52=20240613-13:36:15.884|56=CLIENT1|7=2|16=0|10=136|8=FIX.4.4|9=67|35=2|34=943|49=SIMPLE|52=20240613-13:36:15.888|56=CLIENT1|7=2|16=0|10=141|8=FIX.4.4|9=67|35=2|34=944|49=SIMPLE|52=20240613-13:36:15.892|56=CLIENT1|7=2|16=0|10=137|8=FIX.4.4|9=67|35=2|34=945|49=SIMPLE|52=20240613-13:36:15.895|56=CLIENT1|7=2|16=0|10=141|8=FIX.4.4|9=67|35=2|34=946|49=SIMPLE|52=20240613-13:36:15.899|56=CLIENT1|7=2|16=0|10=146|8=FIX.4.4|9=67|35=2|34=947|49=SIMPLE|52=20240613-13:36:15.901|56=CLIENT1|7=2|16=0|10=131|8=FIX.4.4|9=67|35=2|34=948|49=SIMPLE|52=20240613-13:36:15.907|56=CLIENT1|7=2|16=0|10=138|8=FIX.4.4|9=67|35=2|34=949|49=SIMPLE|52=20240613-13:36:15.910|56=CLIENT1|7=2|16=0|10=133|8=FIX.4.4|9=67|35=2|34=950|49=SIMPLE|52=20240613-13:36:15.913|56=CLIENT1|7=2|16=0|10=128|8=FIX.4.4|9=67|35=2|34=951|49=SIMPLE|52=20240613-13:36:15.915|56=CLIENT1|7=2|16=0|10=131|8=FIX.4.4|9=67|35=2|34=952|49=SIMPLE|52=20240613-13:36:15.918|56=CLIENT1|7=2|16=0|10=135|8=FIX.4.4|9=67|35=2|34=953|49=SIMPLE|52=20240613-13:36:15.921|56=CLIENT1|7=2|16=0|10=130|8=FIX.4.4|9=67|35=2|34=954|49=SIMPLE|52=20240613-13:36:15.926|56=CLIENT1|7=2|16=0|10=136|8=FIX.4.4|9=67|35=2|34=955|49=SIMPLE|52=20240613-13:36:15.930|56=CLIENT1|7=2|16=0|10=132|8=FIX.4.4|9=67|35=2|34=956|49=SIMPLE|52=20240613-13:36:15.932|56=CLIENT1|7=2|16=0|10=135|8=FIX.4.4|9=67|35=2|34=957|49=SIMPLE|52=20240613-13:36:15.936|56=CLIENT1|7=2|16=0|10=140|8=FIX.4.4|9=67|35=2|34=958|49=SIMPLE|52=20240613-13:36:15.939|56=CLIENT1|7=2|16=0|10=144|8=FIX.4.4|9=67|35=2|34=959|49=SIMPLE|52=20240613-13:36:15.943|56=CLIENT1|7=2|16=0|10=140|8=FIX.4.4|9=67|35=2|34=960|49=SIMPLE|52=20240613-13:36:15.946|56=CLIENT1|7=2|16=0|10=135|8=FIX.4.4|9=67|35=2|34=961|49=SIMPLE|52=20240613-13:36:15.949|56=CLIENT1|7=2|16=0|10=139|8=FIX.4.4|9=67|35=2|34=962|49=SIMPLE|52=20240613-13:36:15.952|56=CLIENT1|7=2|16=0|10=134|8=FIX.4.4|9=67|35=2|34=963|49=SIMPLE|52=20240613-13:36:15.955|56=CLIENT1|7=2|16=0|10=138|8=FIX.4.4|9=67|35=2|34=964|49=SIMPLE|52=20240613-13:36:15.960|56=CLIENT1|7=2|16=0|10=135|8=FIX.4.4|9=67|35=2|34=965|49=SIMPLE|52=20240613-13:36:15.963|56=CLIENT1|7=2|16=0|10=139|8=FIX.4.4|9=67|35=2|34=966|49=SIMPLE|52=20240613-13:36:15.965|56=CLIENT1|7=2|16=0|10=142|8=FIX.4.4|9=67|35=2|34=967|49=SIMPLE|52=20240613-13:36:15.968|56=CLIENT1|7=2|16=0|10=146|8=FIX.4.4|9=67|35=2|34=968|49=SIMPLE|52=20240613-13:36:15.971|56=CLIENT1|7=2|16=0|10=141|8=FIX.4.4|9=67|35=2|34=969|49=SIMPLE|52=20240613-13:36:15.976|56=CLIENT1|7=2|16=0|10=147|8=FIX.4.4|9=67|35=2|34=970|49=SIMPLE|52=20240613-13:36:15.979|56=CLIENT1|7=2|16=0|10=142|8=FIX.4.4|9=67|35=2|34=971|49=SIMPLE|52=20240613-13:36:15.982|56=CLIENT1|7=2|16=0|10=137|8=FIX.4.4|9=67|35=2|34=972|49=SIMPLE|52=20240613-13:36:15.985|56=CLIENT1|7=2|16=0|10=141|8=FIX.4.4|9=67|35=2|34=973|49=SIMPLE|52=20240613-13:36:15.988|56=CLIENT1|7=2|16=0|10=145|8=FIX.4.4|9=67|35=2|34=974|49=SIMPLE|52=20240613-13:36:15.992|56=CLIENT1|7=2|16=0|10=141|8=FIX.4.4|9=67|35=2|34=975|49=SIMPLE|52=20240613-13:36:15.995|56=CLIENT1|7=2|16=0|10=145|8=FIX.4.4|9=67|35=2|34=976|49=SIMPLE|52=20240613-13:36:15.998|56=CLIENT1|7=2|16=0|10=149|8=FIX.4.4|9=67|35=2|34=977|49=SIMPLE|52=20240613-13:36:16.000|56=CLIENT1|7=2|16=0|10=125|8=FIX.4.4|9=67|35=2|34=978|49=SIMPLE|52=20240613-13:36:16.003|56=CLIENT1|7=2|16=0|10=129|8=FIX.4.4|9=67|35=2|34=979|49=SIMPLE|52=20240613-13:36:16.008|56=CLIENT1|7=2|16=0|10=135|8=FIX.4.4|9=67|35=2|34=980|49=SIMPLE|52=20240613-13:36:16.011|56=CLIENT1|7=2|16=0|10=121|8=FIX.4.4|9=67|35=2|34=981|49=SIMPLE|52=20240613-13:36:16.014|56=CLIENT1|7=2|16=0|10=125|8=FIX.4.4|9=67|35=2|34=982|49=SIMPLE|52=20240613-13:36:16.016|56=CLIENT1|7=2|16=0|10=128|8=FIX.4.4|9=67|35=2|34=983|49=SIMPLE|52=20240613-13:36:16.019|56=CLIENT1|7=2|16=0|10=132|8=FIX.4.4|9=67|35=2|34=984|49=SIMPLE|52=20240613-13:36:16.024|56=CLIENT1|7=2|16=0|10=129|8=FIX.4.4|9=67|35=2|34=985|49=SIMPLE|52=20240613-13:36:16.026|56=CLIENT1|7=2|16=0|10=132|8=FIX.4.4|9=67|35=2|34=986|49=SIMPLE|52=20240613-13:36:16.029|56=CLIENT1|7=2|16=0|10=136|8=FIX.4.4|9=67|35=2|34=987|49=SIMPLE|52=20240613-13:36:16.032|56=CLIENT1|7=2|16=0|10=131|8=FIX.4.4|9=67|35=2|34=988|49=SIMPLE|52=20240613-13:36:16.034|56=CLIENT1|7=2|16=0|10=134|8=FIX.4.4|9=67|35=2|34=989|49=SIMPLE|52=20240613-13:36:16.039|56=CLIENT1|7=2|16=0|10=140|8=FIX.4.4|9=67|35=2|34=990|49=SIMPLE|52=20240613-13:36:16.042|56=CLIENT1|7=2|16=0|10=126|8=FIX.4.4|9=67|35=2|34=991|49=SIMPLE|52=20240613-13:36:16.045|56=CLIENT1|7=2|16=0|10=130|8=FIX.4.4|9=67|35=2|34=992|49=SIMPLE|52=20240613-13:36:16.048|56=CLIENT1|7=2|16=0|10=134|8=FIX.4.4|9=67|35=2|34=993|49=SIMPLE|52=20240613-13:36:16.050|56=CLIENT1|7=2|16=0|10=128|8=FIX.4.4|9=67|35=2|34=994|49=SIMPLE|52=20240613-13:36:16.053|56=CLIENT1|7=2|16=0|10=132|8=FIX.4.4|9=67|35=2|34=995|49=SIMPLE|52=20240613-13:36:16.056|56=CLIENT1|7=2|16=0|10=136|8=FIX.4.4|9=67|35=2|34=996|49=SIMPLE|52=20240613-13:36:16.061|56=CLIENT1|7=2|16=0|10=133|8=FIX.4.4|9=67|35=2|34=997|49=SIMPLE|52=20240613-13:36:16.064|56=CLIENT1|7=2|16=0|10=137|8=FIX.4.4|9=67|35=2|34=998|49=SIMPLE|52=20240613-13:36:16.066|56=CLIENT1|7=2|16=0|10=140|8=FIX.4.4|9=67|35=2|34=999|49=SIMPLE|52=20240613-13:36:16.069|56=CLIENT1|7=2|16=0|10=144|8=FIX.4.4|9=68|35=2|34=1000|49=SIMPLE|52=20240613-13:36:16.072|56=CLIENT1|7=2|16=0|10=161|8=FIX.4.4|9=68|35=2|34=1001|49=SIMPLE|52=20240613-13:36:16.077|56=CLIENT1|7=2|16=0|10=167|8=FIX.4.4|9=68|35=2|34=1002|49=SIMPLE|52=20240613-13:36:16.080|56=CLIENT1|7=2|16=0|10=162|8=FIX.4.4|9=68|35=2|34=1003|49=SIMPLE|52=20240613-13:36:16.082|56=CLIENT1|7=2|16=0|10=165|8=FIX.4.4|9=68|35=2|34=1004|49=SIMPLE|52=20240613-13:36:16.085|56=CLIENT1|7=2|16=0|10=169|8=FIX.4.4|9=68|35=2|34=1005|49=SIMPLE|52=20240613-13:36:16.088|56=CLIENT1|7=2|16=0|10=173|8=FIX.4.4|9=68|35=2|34=1006|49=SIMPLE|52=20240613-13:36:16.093|56=CLIENT1|7=2|16=0|10=170|8=FIX.4.4|9=68|35=2|34=1007|49=SIMPLE|52=20240613-13:36:16.095|56=CLIENT1|7=2|16=0|10=173|8=FIX.4.4|9=68|35=2|34=1008|49=SIMPLE|52=20240613-13:36:16.098|56=CLIENT1|7=2|16=0|10=177|8=FIX.4.4|9=68|35=2|34=1009|49=SIMPLE|52=20240613-13:36:16.101|56=CLIENT1|7=2|16=0|10=163|8=FIX.4.4|9=68|35=2|34=1010|49=SIMPLE|52=20240613-13:36:16.103|56=CLIENT1|7=2|16=0|10=157|8=FIX.4.4|9=68|35=2|34=1011|49=SIMPLE|52=20240613-13:36:16.108|56=CLIENT1|7=2|16=0|10=163|8=FIX.4.4|9=68|35=2|34=1012|49=SIMPLE|52=20240613-13:36:16.111|56=CLIENT1|7=2|16=0|10=158|8=FIX.4.4|9=68|35=2|34=1013|49=SIMPLE|52=20240613-13:36:16.114|56=CLIENT1|7=2|16=0|10=162|8=FIX.4.4|9=68|35=2|34=1014|49=SIMPLE|52=20240613-13:36:16.116|56=CLIENT1|7=2|16=0|10=165|8=FIX.4.4|9=68|35=2|34=1015|49=SIMPLE|52=20240613-13:36:16.119|56=CLIENT1|7=2|16=0|10=169|8=FIX.4.4|9=68|35=2|34=1016|49=SIMPLE|52=20240613-13:36:16.124|56=CLIENT1|7=2|16=0|10=166|8=FIX.4.4|9=68|35=2|34=1017|49=SIMPLE|52=20240613-13:36:16.127|56=CLIENT1|7=2|16=0|10=170|8=FIX.4.4|9=68|35=2|34=1018|49=SIMPLE|52=20240613-13:36:16.129|56=CLIENT1|7=2|16=0|10=173|8=FIX.4.4|9=68|35=2|34=1019|49=SIMPLE|52=20240613-13:36:16.132|56=CLIENT1|7=2|16=0|10=168|8=FIX.4.4|9=68|35=2|34=1020|49=SIMPLE|52=20240613-13:36:16.135|56=CLIENT1|7=2|16=0|10=163|8=FIX.4.4|9=68|35=2|34=1021|49=SIMPLE|52=20240613-13:36:16.140|56=CLIENT1|7=2|16=0|10=160|8=FIX.4.4|9=68|35=2|34=1022|49=SIMPLE|52=20240613-13:36:16.142|56=CLIENT1|7=2|16=0|10=163|8=FIX.4.4|9=68|35=2|34=1023|49=SIMPLE|52=20240613-13:36:16.145|56=CLIENT1|7=2|16=0|10=167|8=FIX.4.4|9=68|35=2|34=1024|49=SIMPLE|52=20240613-13:36:16.148|56=CLIENT1|7=2|16=0|10=171|8=FIX.4.4|9=68|35=2|34=1025|49=SIMPLE|52=20240613-13:36:16.150|56=CLIENT1|7=2|16=0|10=165|8=FIX.4.4|9=68|35=2|34=1026|49=SIMPLE|52=20240613-13:36:16.153|56=CLIENT1|7=2|16=0|10=169|8=FIX.4.4|9=68|35=2|34=1027|49=SIMPLE|52=20240613-13:36:16.156|56=CLIENT1|7=2|16=0|10=173|8=FIX.4.4|9=68|35=2|34=1028|49=SIMPLE|52=20240613-13:36:16.161|56=CLIENT1|7=2|16=0|10=170|8=FIX.4.4|9=68|35=2|34=1029|49=SIMPLE|52=20240613-13:36:16.164|56=CLIENT1|7=2|16=0|10=174|8=FIX.4.4|9=68|35=2|34=1030|49=SIMPLE|52=20240613-13:36:16.167|56=CLIENT1|7=2|16=0|10=169|8=FIX.4.4|9=68|35=2|34=1031|49=SIMPLE|52=20240613-13:36:16.170|56=CLIENT1|7=2|16=0|10=164|8=FIX.4.4|9=68|35=2|34=1032|49=SIMPLE|52=20240613-13:36:16.173|56=CLIENT1|7=2|16=0|10=168|8=FIX.4.4|9=68|35=2|34=1033|49=SIMPLE|52=20240613-13:36:16.178|56=CLIENT1|7=2|16=0|10=174|8=FIX.4.4|9=68|35=2|34=1034|49=SIMPLE|52=20240613-13:36:16.181|56=CLIENT1|7=2|16=0|10=169|8=FIX.4.4|9=68|35=2|34=1035|49=SIMPLE|52=20240613-13:36:16.184|56=CLIENT1|7=2|16=0|10=173|8=FIX.4.4|9=68|35=2|34=1036|49=SIMPLE|52=20240613-13:36:16.187|56=CLIENT1|7=2|16=0|10=177|8=FIX.4.4|9=68|35=2|34=1037|49=SIMPLE|52=20240613-13:36:16.192|56=CLIENT1|7=2|16=0|10=174|8=FIX.4.4|9=68|35=2|34=1038|49=SIMPLE|52=20240613-13:36:16.194|56=CLIENT1|7=2|16=0|10=177|8=FIX.4.4|9=68|35=2|34=1039|49=SIMPLE|52=20240613-13:36:16.197|56=CLIENT1|7=2|16=0|10=181|8=FIX.4.4|9=68|35=2|34=1040|49=SIMPLE|52=20240613-13:36:16.200|56=CLIENT1|7=2|16=0|10=158|8=FIX.4.4|9=68|35=2|34=1041|49=SIMPLE|52=20240613-13:36:16.203|56=CLIENT1|7=2|16=0|10=162|8=FIX.4.4|9=68|35=2|34=1042|49=SIMPLE|52=20240613-13:36:16.208|56=CLIENT1|7=2|16=0|10=168|8=FIX.4.4|9=68|35=2|34=1043|49=SIMPLE|52=20240613-13:36:16.211|56=CLIENT1|7=2|16=0|10=163|8=FIX.4.4|9=68|35=2|34=1044|49=SIMPLE|52=20240613-13:36:16.214|56=CLIENT1|7=2|16=0|10=167|8=FIX.4.4|9=68|35=2|34=1045|49=SIMPLE|52=20240613-13:36:16.216|56=CLIENT1|7=2|16=0|10=170|8=FIX.4.4|9=68|35=2|34=1046|49=SIMPLE|52=20240613-13:36:16.219|56=CLIENT1|7=2|16=0|10=174|8=FIX.4.4|9=68|35=2|34=1047|49=SIMPLE|52=20240613-13:36:16.224|56=CLIENT1|7=2|16=0|10=171|8=FIX.4.4|9=68|35=2|34=1048|49=SIMPLE|52=20240613-13:36:16.227|56=CLIENT1|7=2|16=0|10=175|8=FIX.4.4|9=68|35=2|34=1049|49=SIMPLE|52=20240613-13:36:16.229|56=CLIENT1|7=2|16=0|10=178|8=FIX.4.4|9=68|35=2|34=1050|49=SIMPLE|52=20240613-13:36:16.232|56=CLIENT1|7=2|16=0|10=164|8=FIX.4.4|9=68|35=2|34=1051|49=SIMPLE|52=20240613-13:36:16.235|56=CLIENT1|7=2|16=0|10=168|8=FIX.4.4|9=68|35=2|34=1052|49=SIMPLE|52=20240613-13:36:16.240|56=CLIENT1|7=2|16=0|10=165|8=FIX.4.4|9=68|35=2|34=1053|49=SIMPLE|52=20240613-13:36:16.243|56=CLIENT1|7=2|16=0|10=169|8=FIX.4.4|9=68|35=2|34=1054|49=SIMPLE|52=20240613-13:36:16.245|56=CLIENT1|7=2|16=0|10=172|8=FIX.4.4|9=68|35=2|34=1055|49=SIMPLE|52=20240613-13:36:16.248|56=CLIENT1|7=2|16=0|10=176|8=FIX.4.4|9=68|35=2|34=1056|49=SIMPLE|52=20240613-13:36:16.251|56=CLIENT1|7=2|16=0|10=171|8=FIX.4.4|9=68|35=2|34=1057|49=SIMPLE|52=20240613-13:36:16.253|56=CLIENT1|7=2|16=0|10=174|8=FIX.4.4|9=68|35=2|34=1058|49=SIMPLE|52=20240613-13:36:16.256|56=CLIENT1|7=2|16=0|10=178|8=FIX.4.4|9=68|35=2|34=1059|49=SIMPLE|52=20240613-13:36:16.261|56=CLIENT1|7=2|16=0|10=175|8=FIX.4.4|9=68|35=2|34=1060|49=SIMPLE|52=20240613-13:36:16.264|56=CLIENT1|7=2|16=0|10=170|8=FIX.4.4|9=68|35=2|34=1061|49=SIMPLE|52=20240613-13:36:16.267|56=CLIENT1|7=2|16=0|10=174|8=FIX.4.4|9=68|35=2|34=1062|49=SIMPLE|52=20240613-13:36:16.269|56=CLIENT1|7=2|16=0|10=177|8=FIX.4.4|9=68|35=2|34=1063|49=SIMPLE|52=20240613-13:36:16.272|56=CLIENT1|7=2|16=0|10=172|8=FIX.4.4|9=68|35=2|34=1064|49=SIMPLE|52=20240613-13:36:16.278|56=CLIENT1|7=2|16=0|10=179|8=FIX.4.4|9=68|35=2|34=1065|49=SIMPLE|52=20240613-13:36:16.280|56=CLIENT1|7=2|16=0|10=173|8=FIX.4.4|9=68|35=2|34=1066|49=SIMPLE|52=20240613-13:36:16.283|56=CLIENT1|7=2|16=0|10=177|8=FIX.4.4|9=68|35=2|34=1067|49=SIMPLE|52=20240613-13:36:16.286|56=CLIENT1|7=2|16=0|10=181|8=FIX.4.4|9=68|35=2|34=1068|49=SIMPLE|52=20240613-13:36:16.289|56=CLIENT1|7=2|16=0|10=185|8=FIX.4.4|9=68|35=2|34=1069|49=SIMPLE|52=20240613-13:36:16.294|56=CLIENT1|7=2|16=0|10=182|8=FIX.4.4|9=68|35=2|34=1070|49=SIMPLE|52=20240613-13:36:16.297|56=CLIENT1|7=2|16=0|10=177|8=FIX.4.4|9=68|35=2|34=1071|49=SIMPLE|52=20240613-13:36:16.300|56=CLIENT1|7=2|16=0|10=163|8=FIX.4.4|9=68|35=2|34=1072|49=SIMPLE|52=20240613-13:36:16.303|56=CLIENT1|7=2|16=0|10=167|8=FIX.4.4|9=68|35=2|34=1073|49=SIMPLE|52=20240613-13:36:16.307|56=CLIENT1|7=2|16=0|10=172|8=FIX.4.4|9=68|35=2|34=1074|49=SIMPLE|52=20240613-13:36:16.310|56=CLIENT1|7=2|16=0|10=167|8=FIX.4.4|9=68|35=2|34=1075|49=SIMPLE|52=20240613-13:36:16.313|56=CLIENT1|7=2|16=0|10=171|8=FIX.4.4|9=68|35=2|34=1076|49=SIMPLE|52=20240613-13:36:16.316|56=CLIENT1|7=2|16=0|10=175|8=FIX.4.4|9=68|35=2|34=1077|49=SIMPLE|52=20240613-13:36:16.319|56=CLIENT1|7=2|16=0|10=179|8=FIX.4.4|9=68|35=2|34=1078|49=SIMPLE|52=20240613-13:36:16.324|56=CLIENT1|7=2|16=0|10=176|8=FIX.4.4|9=68|35=2|34=1079|49=SIMPLE|52=20240613-13:36:16.327|56=CLIENT1|7=2|16=0|10=180|8=FIX.4.4|9=68|35=2|34=1080|49=SIMPLE|52=20240613-13:36:16.330|56=CLIENT1|7=2|16=0|10=166|8=FIX.4.4|9=68|35=2|34=1081|49=SIMPLE|52=20240613-13:36:16.332|56=CLIENT1|7=2|16=0|10=169|8=FIX.4.4|9=68|35=2|34=1082|49=SIMPLE|52=20240613-13:36:16.335|56=CLIENT1|7=2|16=0|10=173|8=FIX.4.4|9=68|35=2|34=1083|49=SIMPLE|52=20240613-13:36:16.340|56=CLIENT1|7=2|16=0|10=170|8=FIX.4.4|9=68|35=2|34=1084|49=SIMPLE|52=20240613-13:36:16.343|56=CLIENT1|7=2|16=0|10=174|8=FIX.4.4|9=68|35=2|34=1085|49=SIMPLE|52=20240613-13:36:16.345|56=CLIENT1|7=2|16=0|10=177|8=FIX.4.4|9=68|35=2|34=1086|49=SIMPLE|52=20240613-13:36:16.348|56=CLIENT1|7=2|16=0|10=181|8=FIX.4.4|9=68|35=2|34=1087|49=SIMPLE|52=20240613-13:36:16.350|56=CLIENT1|7=2|16=0|10=175|8=FIX.4.4|9=68|35=2|34=1088|49=SIMPLE|52=20240613-13:36:16.353|56=CLIENT1|7=2|16=0|10=179|8=FIX.4.4|9=68|35=2|34=1089|49=SIMPLE|52=20240613-13:36:16.356|56=CLIENT1|7=2|16=0|10=183|8=FIX.4.4|9=68|35=2|34=1090|49=SIMPLE|52=20240613-13:36:16.361|56=CLIENT1|7=2|16=0|10=171|8=FIX.4.4|9=68|35=2|34=1091|49=SIMPLE|52=20240613-13:36:16.364|56=CLIENT1|7=2|16=0|10=175|8=FIX.4.4|9=68|35=2|34=1092|49=SIMPLE|52=20240613-13:36:16.367|56=CLIENT1|7=2|16=0|10=179|8=FIX.4.4|9=68|35=2|34=1093|49=SIMPLE|52=20240613-13:36:16.369|56=CLIENT1|7=2|16=0|10=182|8=FIX.4.4|9=68|35=2|34=1094|49=SIMPLE|52=20240613-13:36:16.372|56=CLIENT1|7=2|16=0|10=177|8=FIX.4.4|9=68|35=2|34=1095|49=SIMPLE|52=20240613-13:36:16.378|56=CLIENT1|7=2|16=0|10=184|8=FIX.4.4|9=68|35=2|34=1096|49=SIMPLE|52=20240613-13:36:16.381|56=CLIENT1|7=2|16=0|10=179|8=FIX.4.4|9=68|35=2|34=1097|49=SIMPLE|52=20240613-13:36:16.383|56=CLIENT1|7=2|16=0|10=182|8=FIX.4.4|9=68|35=2|34=1098|49=SIMPLE|52=20240613-13:36:16.386|56=CLIENT1|7=2|16=0|10=186|8=FIX.4.4|9=68|35=2|34=1099|49=SIMPLE|52=20240613-13:36:16.389|56=CLIENT1|7=2|16=0|10=190|8=FIX.4.4|9=68|35=2|34=1100|49=SIMPLE|52=20240613-13:36:16.394|56=CLIENT1|7=2|16=0|10=169|8=FIX.4.4|9=68|35=2|34=1101|49=SIMPLE|52=20240613-13:36:16.397|56=CLIENT1|7=2|16=0|10=173|8=FIX.4.4|9=68|35=2|34=1102|49=SIMPLE|52=20240613-13:36:16.399|56=CLIENT1|7=2|16=0|10=176|8=FIX.4.4|9=68|35=2|34=1103|49=SIMPLE|52=20240613-13:36:16.402|56=CLIENT1|7=2|16=0|10=162|8=FIX.4.4|9=68|35=2|34=1104|49=SIMPLE|52=20240613-13:36:16.407|56=CLIENT1|7=2|16=0|10=168|8=FIX.4.4|9=68|35=2|34=1105|49=SIMPLE|52=20240613-13:36:16.410|56=CLIENT1|7=2|16=0|10=163|8=FIX.4.4|9=68|35=2|34=1106|49=SIMPLE|52=20240613-13:36:16.413|56=CLIENT1|7=2|16=0|10=167|8=FIX.4.4|9=68|35=2|34=1107|49=SIMPLE|52=20240613-13:36:16.416|56=CLIENT1|7=2|16=0|10=171|8=FIX.4.4|9=68|35=2|34=1108|49=SIMPLE|52=20240613-13:36:16.418|56=CLIENT1|7=2|16=0|10=174|8=FIX.4.4|9=68|35=2|34=1109|49=SIMPLE|52=20240613-13:36:16.423|56=CLIENT1|7=2|16=0|10=171|8=FIX.4.4|9=68|35=2|34=1110|49=SIMPLE|52=20240613-13:36:16.426|56=CLIENT1|7=2|16=0|10=166|8=FIX.4.4|9=68|35=2|34=1111|49=SIMPLE|52=20240613-13:36:16.429|56=CLIENT1|7=2|16=0|10=170|8=FIX.4.4|9=68|35=2|34=1112|49=SIMPLE|52=20240613-13:36:16.432|56=CLIENT1|7=2|16=0|10=165|8=FIX.4.4|9=68|35=2|34=1113|49=SIMPLE|52=20240613-13:36:16.435|56=CLIENT1|7=2|16=0|10=169|8=FIX.4.4|9=68|35=2|34=1114|49=SIMPLE|52=20240613-13:36:16.440|56=CLIENT1|7=2|16=0|10=166|8=FIX.4.4|9=68|35=2|34=1115|49=SIMPLE|52=20240613-13:36:16.443|56=CLIENT1|7=2|16=0|10=170|8=FIX.4.4|9=68|35=2|34=1116|49=SIMPLE|52=20240613-13:36:16.446|56=CLIENT1|7=2|16=0|10=174|8=FIX.4.4|9=68|35=2|34=1117|49=SIMPLE|52=20240613-13:36:16.449|56=CLIENT1|7=2|16=0|10=178|8=FIX.4.4|9=68|35=2|34=1118|49=SIMPLE|52=20240613-13:36:16.451|56=CLIENT1|7=2|16=0|10=172|8=FIX.4.4|9=68|35=2|34=1119|49=SIMPLE|52=20240613-13:36:16.454|56=CLIENT1|7=2|16=0|10=176|8=FIX.4.4|9=68|35=2|34=1120|49=SIMPLE|52=20240613-13:36:16.457|56=CLIENT1|7=2|16=0|10=171|8=FIX.4.4|9=68|35=2|34=1121|49=SIMPLE|52=20240613-13:36:16.462|56=CLIENT1|7=2|16=0|10=168|8=FIX.4.4|9=68|35=2|34=1122|49=SIMPLE|52=20240613-13:36:16.465|56=CLIENT1|7=2|16=0|10=172|8=FIX.4.4|9=68|35=2|34=1123|49=SIMPLE|52=20240613-13:36:16.468|56=CLIENT1|7=2|16=0|10=176|8=FIX.4.4|9=68|35=2|34=1124|49=SIMPLE|52=20