8=FIX.4.4|9=68|35=A|34=1|49=SIMPLE|52=20240625-16:20:14.216|56=CLIENT1|98=0|108=30|10=186|8=FIX.4.4|9=169|35=8|34=2|49=SIMPLE|52=20240625-16:20:16.367|56=CLIENT1|1=77|6=10|11=999|14=96|17=3|31=10|32=96|37=3|38=96|39=2|54=1|55=YYY|58=This message is from Acceptor|150=2|151=0|10=159|8=FIX.4.4|9=56|35=0|34=3|49=SIMPLE|52=20240625-16:20:46.469|56=CLIENT1|10=158|8=FIX.4.4|9=65|35=2|34=4|49=SIMPLE|52=20240625-16:20:46.471|56=CLIENT1|7=2|16=0|10=022|8=FIX.4.4|9=56|35=0|34=5|49=SIMPLE|52=20240625-16:21:16.543|56=CLIENT1|10=151|8=FIX.4.4|9=56|35=0|34=6|49=SIMPLE|52=20240625-16:21:46.658|56=CLIENT1|10=162|8=FIX.4.4|9=56|35=0|34=7|49=SIMPLE|52=20240625-16:22:16.736|56=CLIENT1|10=158|8=FIX.4.4|9=56|35=0|34=8|49=SIMPLE|52=20240625-16:22:46.808|56=CLIENT1|10=162|8=FIX.4.4|9=56|35=0|34=9|49=SIMPLE|52=20240625-16:23:16.894|56=CLIENT1|10=166|8=FIX.4.4|9=57|35=0|34=10|49=SIMPLE|52=20240625-16:23:46.978|56=CLIENT1|10=213|8=FIX.4.4|9=57|35=0|34=11|49=SIMPLE|52=20240625-16:24:17.100|56=CLIENT1|10=190|8=FIX.4.4|9=57|35=0|34=12|49=SIMPLE|52=20240625-16:24:47.204|56=CLIENT1|10=199|8=FIX.4.4|9=57|35=0|34=13|49=SIMPLE|52=20240625-16:25:17.291|56=CLIENT1|10=204|8=FIX.4.4|9=57|35=0|34=14|49=SIMPLE|52=20240625-16:25:47.448|56=CLIENT1|10=212|8=FIX.4.4|9=57|35=0|34=15|49=SIMPLE|52=20240625-16:26:17.602|56=CLIENT1|10=203|8=FIX.4.4|9=57|35=0|34=16|49=SIMPLE|52=20240625-16:26:47.673|56=CLIENT1|10=215|8=FIX.4.4|9=57|35=0|34=17|49=SIMPLE|52=20240625-16:27:17.753|56=CLIENT1|10=213|8=FIX.4.4|9=57|35=0|34=18|49=SIMPLE|52=20240625-16:27:47.847|56=CLIENT1|10=221|8=FIX.4.4|9=57|35=0|34=19|49=SIMPLE|52=20240625-16:28:17.919|56=CLIENT1|10=220|8=FIX.4.4|9=57|35=0|34=20|49=SIMPLE|52=20240625-16:28:48.019|56=CLIENT1|10=207|8=FIX.4.4|9=57|35=0|34=21|49=SIMPLE|52=20240625-16:29:18.107|56=CLIENT1|10=204|8=FIX.4.4|9=57|35=0|34=22|49=SIMPLE|52=20240625-16:29:48.206|56=CLIENT1|10=208|8=FIX.4.4|9=57|35=0|34=23|49=SIMPLE|52=20240625-16:30:18.323|56=CLIENT1|10=198|8=FIX.4.4|9=57|35=0|34=24|49=SIMPLE|52=20240625-16:30:48.447|56=CLIENT1|10=209|8=FIX.4.4|9=57|35=0|34=25|49=SIMPLE|52=20240625-16:31:18.533|56=CLIENT1|10=204|8=FIX.4.4|9=57|35=0|34=26|49=SIMPLE|52=20240625-16:31:48.609|56=CLIENT1|10=212|8=FIX.4.4|9=57|35=0|34=27|49=SIMPLE|52=20240625-16:32:18.709|56=CLIENT1|10=212|