8=FIX.4.4|9=64|35=A|34=1|49=SIMPLE|52=20240624-13:27:12.127|56=mou|98=0|108=30|10=025|8=FIX.4.4|9=168|35=8|34=2|49=SIMPLE|52=20240624-13:27:36.542|56=mou|1=77|6=10|11=999|14=444|17=2|31=10|32=444|37=2|38=444|39=2|54=1|55=aza|58=This message is from Acceptor|150=2|151=0|10=181|